:020000040800F2
:10000000580B0020A5020008A55B0008DD5400087D
:10001000A15B0008490600087169000800000000A3
:10002000000000000000000000000000AD5F0008BC
:100030007106000800000000A95B0008B15F00081D
:10004000BF020008BF020008BF020008BF0200088C
:10005000BF020008BF020008BF020008BF0200087C
:10006000BF020008BF020008BF0200084D060008DA
:100070005906000865060008BF020008BF02000814
:10008000BF020008BF020008BF020008BF0200084C
:10009000BF020008810600088D060008BF020008A4
:1000A000C95F0008BF020008BF020008BF020008C5
:1000B000BF020008BF020008BF020008BF0200081C
:1000C000BF020008BF020008BF020008AD5B0008C5
:1000D000BF02000865690008BF020008BF020008EF
:1000E000BF020008BF020008BF020008BF020008EC
:1000F000BF020008BF020008BF020008BF020008DC
:10010000BF020008BF020008BF020008BF020008CB
:10011000BF020008BF020008BF020008BF020008BB
:10012000BF020008BF020008BF020008BF020008AB
:10013000BF020008BF020008BF020008BF0200089B
:10014000BF020008BF020008BF020008BF0200088B
:10015000BF020008BF020008BF020008BF0200087B
:10016000BF020008BF020008BF020008BF0200086B
:10017000BF020008BF020008BF020008BF0200085B
:10018000BF020008BF020008BF020008BF0200084B
:10019000BF02000800000000BF020008BF02000804
:1001A000BF020008BF020008BF020008BF0200082B
:1001B000BF020008BF020008BF020008BF0200081B
:1001C000BF020008BF020008BF020008BF0200080B
:1001D000BF020008BF02000800F002F800F052F869
:1001E00014A696E8000CB244B344DA4501D100F0FD
:1001F00049F8BAE80F000FA696E83000A5EB040511
:1002000004EB0607AAEB0704A7F101074FEA15154F
:100210004FEA3414A4F10104AC4201D300F032F8E7
:1002200013F0010F18BFFB1A43F0010300F001F8AF
:10023000DBE71847C86A0000E86A0000103A24BFEC
:1002400078C878C1FAD8520724BF30C830C144BF3B
:1002500004680C6070470000704700000023002411
:1002600000250026103A28BF78C1FBD8520728BFC6
:1002700030C148BF0B6070471FB506F087FC1FBD3B
:1002800010B510BD00F0E4F81146FFF7F5FF06F0D9
:1002900071FB00F002F903B4FFF7F2FF03BC00F0BA
:1002A00005F900000948804709480047FEE7FEE7D6
:1002B000FEE7FEE7FEE7FEE7FEE7FEE7FEE7FEE716
:1002C00004480549054A064B70470000B55F000821
:1002D000D901000858050020580B002058070020BD
:1002E0005807002053EA020C00F069802DE9F04B1A
:1002F0004FF00006002B1FBFB3FA83F503FA05F495
:1003000024FA05F65E4012BF1643B2FA82F502FAED
:1003100005F4C5F120051EBF22FA05FC44EA0C04D1
:10032000203556EA044C4FEA144418BF641C4FF0C1
:1003300000084FF00009904271EB030C39D30029FB
:1003400019BFB1FA81F701FA07F6B0FA80F700FA9F
:1003500007F6C7F120071EBF20FA07FC46EA0C0685
:100360002037B6FBF4FCA7EB0507103F07F01F0B87
:10037000CBF120062CFA06F60CFA0BFB44BFB34671
:100380000026202FA4BF5E464FF0000B5BEA060C50
:1003900008BF4FF0010B19EB0B0948EB0608ABFB4C
:1003A000027C06FB02CC0BFB03CCC01B71EB0C01E7
:1003B000C1E70B46024641464846BDE8F08B13B5FF
:1003C000084318BF4FF0FF300146AFF30080BDE88F
:1003D0001C4070474FF0000200B513469446964605
:1003E000203922BFA0E80C50A0E80C50B1F1200148
:1003F000BFF4F7AF090728BFA0E80C5048BF0CC0F6
:100400005DF804EB890028BF40F8042B08BF704753
:1004100048BF20F8022B11F0804F18BF00F8012BC5
:10042000704770477047704710B500F009F80068D2
:1004300010BD10B5044600F003F8046010BD0000C4
:10044000004870471000002000487047100000204E
:100450007546FFF7F9FFAE4605006946534620F0A2
:100460000700854618B020B5FFF72AFFBDE82040F9
:100470004FF000064FF000074FF000084FF0000B60
:10048000AC46ACE8C009ACE8C009ACE8C009ACE8CF
:10049000C00921F007018D46704710B50446AFF33F
:1004A00000802046BDE81040FFF7F5BE0149182046
:1004B000ABBEFEE72600020070470000B0B5016841
:1004C00004468A688868C0074FF0000031D012F0F7
:1004D000020218BFB0BD886800F00D0001281FD1CE
:1004E00088684FF6C072C7F6FF721040023088600D
:1004F0000320086002F082F921688968C90704BFF7
:100500000020B0BD054602E08068C00712D002F0AE
:1005100075F9411B20680329F6D38168C907F3D018
:10052000E06D40F01000E065206E40F001002066B4
:100530000120B0BD0020B0BD70B582B004460020DF
:10054000019021688A68D20711D14FF6C076C7F6AC
:10055000FF76886806F17F0210420BD0E06D40F014
:100560001000E065206E40F001002066012002B01E
:1005700070BD00BF88684FF4C162304040F0010098
:10058000886040F20010C5F20000814208BF4FF4BD
:100590000272B1F1A04F08BF4FF40272105800026E
:1005A00022D402F02BF921680A68D20718D1054637
:1005B00003E000BF0868C00712D18868C00704D1F3
:1005C0008868304040F00100886002F017F9401B55
:1005D00021680328EED30868C007EBD1BEE700BF4F
:1005E000002002B070BD00BF40F20800C2F200005F
:1005F000006842F663518009C0F23E51A0FB010140
:10060000880900EB40000C2101EB8000019001986B
:100610000028C6D001980138019001980028C0D068
:1006200001980138019001980028BAD0019801384A
:10063000019001980028B4D00198013801900198E8
:100640000028E7D1ADE70000FEE7000040F2781097
:10065000C2F2000001F0D4B940F2D810C2F200009A
:1006600001F0CEB940F23820C2F2000001F0C8B962
:1006700070470000EFF3108072B600BFFEE7000085
:1006800040F29820C2F2000001F010BD40F2982024
:10069000C2F2000001F00ABD10B588B00020CDE91B
:1006A0000200022004904FF4007006904FF4FE60A8
:1006B000079040F298200124C2F2000002A905949C
:1006C00001F0F0FB10B1204608B010BD40F29820B8
:1006D000C2F20000022102220123009401F012FC68
:1006E0000028F0D140F29820C2F20000012100223F
:1006F000012401F0F5FA0028E5D140F29820C2F279
:10070000000001F063FF0446204608B010BD000061
:1007100070B52DED028B8CB000F066F89FED2F8A3E
:10072000F0EE480A06F08CF9B5EE400A9FED2C2A4F
:1007300030EE081AF1EE10FAB8BFB0EE410A20EE22
:10074000020ABDEEC00A10EE104A00F065F8B2EEE3
:10075000041A20EE010ABDEEC00A10EE105A00F095
:1007600053F89FED208A20EE080ABDEEC00A10EE75
:10077000106A00F041F820EE080ABDEEC00A10EE43
:10078000100A210A8DF80510290A8DF80A00000ABE
:100790008DF80710310A8DF80B0040F201108DF82A
:1007A0000910039000200821CDE90400CDE90610CE
:1007B000CDE90800CDE90A0040F29820C2F200001D
:1007C00003A901AA8DF804408DF806508DF8086041
:1007D00001F00CFB0CB0BDEC028B70BDDB0FC9400F
:1007E00000007A440000C84240F27000C2F20000EB
:1007F00090ED020A7047000040F27000C2F2000063
:1008000090ED050A7047000040F27000C2F200004F
:1008100090ED040A7047000040F27000C2F2000040
:1008200090ED030A7047000070B540F60005C4F66D
:10083000000528464FF48041002201F0D9FF2846E8
:100840004FF40041002201F0D3FF40F22844C2F2ED
:1008500000042046002104F07FF82046042104F023
:100860007BF82046082104F077F8204603F064FB6B
:1008700040F27440C2F2000003F0B8FB40F2A00660
:10088000C2F2000630467F2100F03AF8304600F010
:100890002FFBA5F580600421012201F0A9FF40F2A1
:1008A000FC2040F20C0140F27002C2F20000C2F2E1
:1008B0000001C2F20002012303F086F8206840F232
:1008C000264141638163C16370BD0000B7EE001A29
:1008D000B4EE410AF1EE10FAC8BFB0EE410ABFEE25
:1008E000001A40F27000B4EE410AC2F20000F1EECC
:1008F00010FAC8BFB0EE401A80ED011A7047000030
:10090000B0B582B004460020019094F85800012848
:1009100002D1022002B0B0BD012084F85800204668
:100920000D46FFF7CBFDE16D10B141F010014BE03A
:1009300041F2021291430231E16521684FF6C07322
:10094000D1F808C0C3F6FF7303EA0C0305F0804535
:100950004DF601622B44C0F2040203F100438B60A8
:100960008B68B3F1FF3F2BDC019B01330193019BAB
:1009700093421DD88B68B3F1FF3F21DC019B01330B
:100980000193019B934213D88B68B3F1FF3F17DCAF
:10099000019B01330193019B934209D88B68B3F10A
:1009A000FF3F0DDC019B01330193019B9342D7D99B
:1009B000E06D40F0100020F00201012004E000BFD3
:1009C000E16D012262F30101E165002184F8581014
:1009D00002B0B0BD2DE9F04181B00022009290F844
:1009E0005820012A06D14FF0020C604601B0BDE844
:1009F000F08100BF4269012380F8583012B10B6AC0
:100A0000012B21D14A68092A1AD10A688B6A4FF44E
:100A1000785606EA524223B1CE6A03F07C03334390
:100A20001A43D0F8008044F20005D8F84C60C0F2B8
:100A300010452E401643C8F84C6042662EE000BFB9
:100A4000D0F800802AE000BF866E1EB1456E0022FD
:100A50000AE000BF8E6A5A1E26B1CD6A06F07C06F7
:100A60002E43324300251E46D1E90034D0F80080E1
:100A700004F01F04C3F38463A3401A43013E42EA17
:100A80000502C0E9192609D1D8F84C6044F20005E6
:100A9000C0F210452E403243C8F84C20D8F8082048
:100AA000120714D4D8F80C2091F8256091F826503C
:100AB00022F44012002E4FEA455601D0324304E0A2
:100AC00091F8245042EA05523243C8F80C20D8F875
:100AD0000820D8F8086002F0040206F0080692190F
:100AE00016D18A6AC2B1CA6AB2B191F82520012A28
:100AF0001CD1C26D4FF0010C42F02002C26591F88A
:100B00003060D8F81020012E1ED022F0020223E01F
:100B10004FF0000CEBE000BF91F82560D8F80C20F6
:100B2000012E05D142F0007204E000BFD8F80C207D
:100B300022F000724FF0000CC8F80C2091F83060E1
:100B4000D8F81020012EE0D1D1E90D6522F4FF7212
:100B500032432A4342F00202C8F810200C680426EF
:100B600008F1140206EAD45EC4F340668D6852F8B8
:100B70002660C4F304540727A740B5F1004F26EAC6
:100B8000070605D142F80E60126842F0004207E005
:100B900005FA04F4344342F80E40126822F0004291
:100BA000C8F81420D1E90426D8F80C50042A71D1D1
:100BB000D8F86020D8F860200C68C2F3846694FAF4
:100BC000A4F52246B5FA85F5C4F3846E6FF3DF42CF
:100BD0002C46002A08BF7446A6424FF6FF74C0F2A6
:100BE00007040ED1D8F8602022F00042C8F8602037
:100BF0000D6805EA0402C5F3846E95FAA5F5B5FA09
:100C000085F5D8F86460D8F86460002AC6F3846675
:100C10002F4608BF7746BE420ED1D8F8642022F096
:100C20000042C8F864200D6805EA0402C5F3846E2A
:100C300095FAA5F5B5FA85F5D8F86860D8F8686032
:100C4000002AC6F384662F4608BF7746BE420ED1FF
:100C5000D8F8682022F00042C8F868200D6805EA3C
:100C6000040295FAA5F4C5F3846EB4FA84F5D8F8B5
:100C70006C40D8F86C40002AC4F3846408BF754601
:100C8000AC4234D1D8F86C2022F00042C8F86C2075
:100C90002DE000BF062707EA950706FA07FE0E6853
:100CA00008F1600555F822404FF20007C0F2FF3707
:100CB00006F0F8463C404EEA0607274347F0004757
:100CC00045F822700A698F6955F8226026F080760F
:100CD000374345F822700A690F7F55F82260012FCB
:100CE00026F0007608BF06F1007645F82260D8F8B5
:100CF00008200C68D2074ED1CF684FF6FF73D8F8A2
:100D0000B060224607F01805C0F207036FF3DF4218
:100D1000EB409643234033430026C4F27F06B7429C
:100D2000C8F8B03037D18AB194FAA4F2B2FA82F29C
:100D3000013202F01E03092B02F01F020FD801231B
:100D4000934002EB420243EA025214E0012202EB1A
:100D5000946202F01E030A2B02F01F02EFD301235C
:100D60000027934002EB4202CFF6206707EB0252C6
:100D70001A4342F00072C2F3406708EB87078B68A2
:100D80007E69C2F3045207259540AE4303FA02F28E
:100D900032437A610C680021C8F208010C4200F06D
:100DA0009F8040F20031C5F20001A1F500754FF4BB
:100DB0008162A84508BF0822B8F1A04F08BF0822E9
:100DC00056580023CCF221339C4206F0E07E04D03A
:100DD0001023C9F2C0039C4244D1330200F1808049
:100DE00040F20063C5F20003984502D0B8F1A04F6D
:100DF00076D18B5823F0E07343EA0E0343F40003EB
:100E00008B5040F20801C2F20001096842F66352B9
:100E10008909C0F23E52A1FB0212910901EB410186
:100E2000182202EB810100910099002958D000BFDF
:100E30000099013900910099002951D00099013998
:100E40000091009900294BD0009901390091009937
:100E5000002945D000990139009100990029E7D176
:100E60003EE000BF0022CCF2527294421AD100221E
:100E7000B2EB1E6F16D1B8F1A04F0FD040F20012A6
:100E8000C5F2000290452BD040F20052C5F200029C
:100E9000904525D0A84518BF01F580614FF08072BC
:100EA00017E000BF0022CCF68432944208BF16F44B
:100EB000800215D1B8F1A04F09D040F20012C5F25E
:100EC000000290450CD0A84518BF01F580614FF491
:100ED00080028B6823F0E0731A4342EA0E028A60B4
:100EE000002180F85810604601B0BDE8F081000094
:100EF000F0B581B040F20044C5F200040168A4F5E9
:100F000040724FF44273914208BF6FF0F703B1F1A2
:100F1000A04F08BF6FF0F7031D598A68120711D45C
:100F2000CA68C96C11F4C07F08D1002A06D4C16D0B
:100F300041F02001C165012001B0F0BD90F85810CA
:100F4000012903D1022001B0F0BD00BF012180F8CA
:100F500058100646FFF7F0FA20B1002186F8581025
:100F600001B0F0BDF16D3046C90546BF016E21F0FC
:100F7000080100210166C16D43F20102914301F5B0
:100F80008051C165016840F2001EC5F2000E40F2BA
:100F9000005C7145C5F2000C04D0614510D12246B9
:100FA00002E000BF4FF0A04205F01F06B6FA86F33C
:100FB0008A424FEA531218BF002E06D0002208E0E2
:100FC00005F01F02B2FA82F25209C36D23F48013B6
:100FD000C36560230B60002380F85830CB689B0208
:100FE00003D54B6843F480634B6083694E686FF0B0
:100FF0004007082B08BF6FF0200706EA07064E607F
:101000004FF020034E6808BF4023334371454B60C7
:1010100002D0614502D013E04FF0A0448C420FD0C3
:1010200005F01E03063BB3FA83F35B091A4307D1AD
:10103000C16D41F48011C165002001B0F0BD00BF59
:10104000C868800107D488684FF6C072C7F6FF727F
:10105000104008308860002001B0F0BD90F85820A2
:10106000012A04BF0220704770B582B000220192AD
:101070000092026840F2080CC5F2000CB2F1A04FD9
:101080000CF1F80508D040F20043C5F200039A4283
:1010900034D10CF59F6300E02B469B689468234392
:1010A0005B072BD44FF4E063D1F800E0AA4208BFFD
:1010B0004FF44073B2F1A04F08BF4FF440735CF897
:1010C0000340BEF1000F24F4604425D04D6890F831
:1010D000386042F4807245EA46352C4340F20015F0
:1010E000C5F20005AA424CF8034027D1DCF80020E5
:1010F000DCF800412243D20748D129E0C16D41F01C
:101100002001C1650121002280F8582002B0BDE80D
:1011100070400846704700BF42F4807140F20012F0
:10112000C5F2000291424CF803401BD1DCF80010DC
:10113000DCF800211143C90728D11DE0DCF80024A8
:10114000DCF80045DCF8005622432A43D2071DD1C3
:101150005CF8032040F61F748968A243114341EAFA
:101160000E010EE0DCF80014DCF80025DCF8006667
:1011700011433143C90709D15CF8031040F61F72CF
:1011800091434CF803100021BDE700BF0021BAE7EE
:10119000F0B581B00022009290F85820012A03D1C6
:1011A0000221084601B0F0BD0123076880F85830DD
:1011B000BB685B0734D4D1E900361F22C6F3012592
:1011C00007EB85052C6B06F01F06B240C3F3846362
:1011D00024EA0202B3401A432A63BA68BB6802F0E9
:1011E000040203F00803D21840F0BB800A6804260A
:1011F00007F1140306EAD25CC2F340668C6853F828
:101200002650C2F304560722B240B4F1004F25EA3B
:1012100002050BD143F80C501A6842F000430DE070
:10122000C16D41F02001C1650121A5E104FA06F27A
:101230002A4343F80C201A6822F000437B61D1E96D
:101240000436FD68042B5FD13A6E3A6E0B68C2F328
:10125000846293FAA3F6C3F3846C6FF3DF43B6FAA8
:1012600086F5002B2C464FF6FF7E08BF6446A2424F
:10127000C0F2070E0CD13A6E22F000423A660A68BC
:1012800002EA0E03C2F3846C92FAA2F2B2FA82F579
:101290007A6E7A6E002BC2F384622C4608BF6446D5
:1012A000A2420CD17A6E22F000427A660A6802EA03
:1012B0000E03C2F3846C92FAA2F2B2FA82F5BA6E0D
:1012C000BA6E002BC2F384622C4608BF6446A24269
:1012D0000CD1BA6E22F00042BA660A6802EA0E0326
:1012E000C2F3846C92FAA2F2B2FA82F5FA6EFA6E46
:1012F000002BC2F3846208BF6546AA4231D1FA6E60
:1013000022F00042FA662CE0062202EA950206FA72
:1013100002FC0E6807F1600555F823404FF2000209
:10132000C0F2FF3206F0F846224046EA0C0632438D
:1013300042F0004245F823200A698B6955F8226083
:1013400026F08076334345F822300A690B7F55F842
:101350002260012B26F0007608BF06F1007645F8E2
:101360002260BA680E68D20750D1CA68D7F8B05068
:1013700033466FF3DF4325EA030C4FF6FF7502F0A7
:101380001804C0F20705E54000243540C4F27F048C
:1013900045EA0C05A242C7F8B05037D193B196FA8E
:1013A000A6F2B2FA82F2013202F01E03092B02F019
:1013B0001F0310D801229A4003EB430342EA035370
:1013C00015E000BF012202EB966202F01E030A2B19
:1013D00002F01F03EED3012200269A4003EB4303E1
:1013E000CFF6206606EB03531A4342F00073C3F3B3
:1013F000406607EB86068A687569C3F304530724C1
:101400009C40A5439A402A4372610E680021C8F2AD
:1014100008010E4200F0AF8040F2003EC5F2000E1F
:10142000AEF500744FF48161A74208BF0821B7F1FF
:10143000A04F08BF082151F80E500022CCF22132F3
:10144000964205F0E07C04D01022C9F2C002964218
:1014500048D12A0200F18F8040F20062C5F20002FA
:10146000974203D0B7F1A04F40F085805EF801208D
:1014700022F0E07242EA0C0242F400024EF801202F
:1014800040F20801C2F20001096842F6635289097C
:10149000C0F23E52A1FB0212910901EB41010C2264
:1014A00002EB810100910099002964D00099013973
:1014B0000091009900295ED00099013900910099AE
:1014C000002958D00099013900910099002952D083
:1014D000009901390091009900294FF00001E5D1F0
:1014E0004AE000BF0021CCF252718E4222D100218D
:1014F000B1EB1C6F1ED1B7F1A04F11D040F200111B
:10150000C5F200018F424FF0000135D040F2005289
:10151000C5F2000297422FD0A74218BF0EF5806E89
:10152000DEF8081021F0E07141EA0C0141F0807111
:101530001FE000BF0021CCF684318E424FF0000145
:1015400008BF15F4800217D1B7F1A04F09D040F2BF
:101550000011C5F200018F420DD0A74218BF0EF551
:10156000806EDEF8081021F0E07141EA0C0141F4D0
:101570008001CEF808100021002280F8582008468B
:1015800001B0F0BD70B582B000210028019153D0A8
:10159000C16D39B9044600F021F9204600212166C9
:1015A00084F858100268916889004FF6C071C5F63A
:1015B000FF7102D593680B4093609368DB002ED4D3
:1015C000936801F18051194041F08051916040F2DF
:1015D0000801C2F20001096842F663538909C0F2AA
:1015E0003E53A1FB03139909022303EB410101912F
:1015F0000199A1B1019901390191019979B101993B
:1016000001390191019951B1019901390191019972
:1016100029B101990139019101990029EAD1916813
:10162000C9000DD4C16D012641F01001C165016EE4
:1016300041F00101016604E00126304602B070BDB0
:1016400000269368C46D03F0040304F010041B1912
:10165000C36D77D123F481730233C3659368DB07CD
:101660002AD140F2001442F48073C5F2000440F223
:10167000080CA342C5F2000C40F0A280DCF8004048
:10168000DCF800311C43E30716D10CF1F8034FF4EA
:10169000E064D0F804E09A4208BF4FF44074B2F11D
:1016A000A04F08BF4FF440745CF8043023F47C135F
:1016B00043EA0E034CF80430437FC46BD0E90215B3
:1016C00044EA43332B4390F824501943012D41EA57
:1016D000054306D1816A0025CFF6FE7505EB414131
:1016E0000B43C46A24B1016B04F4787529430B439E
:1016F000D16844F20705CFF6F07529401943D1604F
:101700001169436B21F04061194311619168090728
:1017100043D490F83810037F490041EA8331D368FD
:1017200044F20205AB431943D160036914698BB1DC
:1017300044F480311161D2F8C01043F6FF75A9431B
:101740000B4310E043F010020126C265304602B0A0
:1017500070BD00BF24F480311161D2F8C01043F68F
:10176000FF7321EA0303C2F8C03090F840101369F8
:1017700001290FD140F2FD7123EA010CD0E91135A6
:10178000D0E9134143EA0C032B432343194341F0AF
:10179000010301E023F0010313614169136B012987
:1017A00023F00F0302D1016A01390B431363C26DA9
:1017B000012161F30102C265304602B070BD00BF75
:1017C000DCF800E4DCF80045DCF8003644EA0E04FE
:1017D0001C43E3073FF459AF6EE7000010B59CB01F
:1017E000044600201B90CDE91900CDE9170002A89E
:1017F0005421FEF7EFFD206840F20011C5F2000110
:10180000884233D0B0F1A04F7CD14FF40040029019
:101810004FF00050139002A801F036F9002818BFCD
:10182000FEF728FF40F29C01C2F200010A6841F273
:101830004C00C4F20200531C0B6042B9016841F431
:1018400000510160016801F40051019101990168A2
:1018500041F001010160006800F001000190019871
:101860000320CDE917004FF0904046E04FF40040D0
:1018700002904FF00050139002A801F005F90028E3
:1018800018BFFEF7F7FE40F29C01C2F200010A68A1
:1018900041F24C00C4F20200531C0B6042B90168D3
:1018A00041F400510160016801F400510191019976
:1018B0000168032441F001010160016801F00101A8
:1018C00001910199016841F002010160006817A9C6
:1018D00000F002000190019810201790002019904C
:1018E0004FF09040189400F093FE4FF40060CDE963
:1018F000170440F20040C4F600000021199117A916
:1019000000F086FE1CB010BD002804BF0120704707
:1019100090F82510022927D180B50168D0E910CEB2
:10192000826C0B6823F001030B600B6823F00E033D
:101930000B60116821F4807111600EF01F0101220B
:1019400002FA01F1CCF80410D0E913215160416D85
:1019500031B10A6822F480720A60D0E916124A6036
:101960000021BDE8804002E00421C1630121012281
:1019700080F82520002280F82420084670470000C7
:1019800090F82510022931D180B50168D0E910CE38
:10199000826C0B6823F001030B600B6823F00E03CD
:1019A0000B60116821F4807111600EF01F0201219B
:1019B00001FA02F2CCF80420D0E913325A60426DE9
:1019C00032B1136823F480731360D0E91623536097
:1019D00080F82510826B002180F824100AB190470E
:1019E0000021BDE880400846704700BF0421C16364
:1019F0000121002280F8251080F824200846704735
:101A0000B0B5D0E910C30268DCF8001003F01F0382
:101A10000424D2F800E09C400C4218BF1EF00405DC
:101A200020D102249C400C4218BF1EF0020529D18F
:101A3000D940090714D51EF0080108BFB0BD1168D0
:101A400021F00E011160012101FA03F2CCF804200B
:101A5000C16380F82510416B002280F8242069B909
:101A6000B0BD00BF1168890603D4116821F00401DC
:101A70001160CCF80440016B0029F1D0BDE8B04002
:101A8000084700BF1168890606D4116821F00A01D1
:101A90001160012180F82510CCF80440C16A0022B1
:101AA000002980F82420E9D1DAE7000000284FF06F
:101AB000010100F08B802DE9F04740F2000CC4F2E8
:101AC000020C02684FF6F8330CF5816ECBF6FD730D
:101AD000724538BF03F580634CF6CD441344CCF611
:101AE000CC44A3FB043902F0FC03A3F10803A3FBDD
:101AF000043A0CF580636FF00305D0E902860769AC
:101B00003CBF0023C4F2020305EA9905C0E9103581
:101B1000022380F82530136847F6F074A34333435B
:101B200044693B4386692343C4693343066A2343BC
:101B3000334343EA080313600CF50263724538BF70
:101B40000CF5006372454FF0080202EB1A1238BF21
:101B50004FEA1A1202F01F0201FA02F440F6840161
:101B60001D440CF50863B8F5804FC4F20201C3644C
:101B70008564046504D1002242602A600C6017E08D
:101B8000426802F07F03013A032A4FF000022B6003
:101B90000C600DD8013B01EB830747F87C2F03F065
:101BA0001F0201239340C1F8C030BC313A4601E026
:101BB00000210023C0E9152100210122C365C16372
:101BC00080F8252080F82410BDE8F04708467047CB
:101BD00090F824C0BCF1010F47D04FF0010C80F801
:101BE00024C090F825C0BCF1010F3BD12DE9F04194
:101BF0004FF0020C80F825C04FF0000CC0F83CC03C
:101C0000D0F800C000F14C0E9EE83040DCF80060D7
:101C1000BEF1000F26F00106CCF8006065601CBF25
:101C2000D0E916456560D0E91056012706F01F0679
:101C3000846807FA06F6D0F830806E60CCF804307D
:101C40000B46102C04BF13460A46CCF80830CCF8DB
:101C50000C20DCF80010B8F1000F09D041F00E01A3
:101C60000EE000BF002180F824100220704700BF62
:101C700021F00401CCF80010DCF8001041F00A015A
:101C8000CCF80010806C0168C90303D5016841F4E9
:101C900080710160BEF1000F05D0DEF8000040F455
:101CA0008070CEF80000DCF8000040F00100CCF8B5
:101CB00000000020BDE8F081B0B5044600F09EFDB4
:101CC000054640F20000C2F200004068611C18BFE7
:101CD000044400BF00F092FD401BA042FAD3B0BD07
:101CE00010B590F85C30013B012B69D800685FEAC1
:101CF000417ED0F858C00CF0010300D01BB311F0A6
:101D0000380F02D01CF002041DD011F4E07F02D085
:101D10001CF0040417D011F4F05F02D01CF008048A
:101D200011D011F4604F02D01CF010040BD011F44C
:101D3000403F02D01CF0200405D011F47C0F06D0E7
:101D40001CF0400403D1C46D44F00104C465BEF12D
:101D5000000F18BF002B3BD111F0380F18BF1CF03B
:101D6000020335D111F4E07F18BF1CF004032FD11A
:101D700011F4F05F18BF1CF0080329D111F4604F73
:101D800018BF1CF0100323D111F4403F18BF1CF002
:101D900020031DD111F47C0F18BF1CF0400317D194
:101DA0000B061BD4CB0504D5D0F8E0301A43C0F89D
:101DB000E02000F15402002013681943116010BDA7
:101DC00000F160020120022113681943116010BD67
:101DD000C36D43F00203C3650B06E3D5D0F8DC30D6
:101DE0001343C0F8DC30CB05DED4E2E790F85C307A
:101DF000022B17D12DE9F041D0F800E0DEF8C43015
:101E00009B0215D4DEF8C430D1E900748E680D69E8
:101E1000C3F3014CA4B145EA0703334343F08048C0
:101E200012E000BF016E41F0080101660120704719
:101E3000016E41F4007101660120BDE8F08100BF30
:101E400045EA874343EA060801F11407F0CF46EA62
:101E500007663543CB682C43456D0CEBCC0644EA52
:101E6000034305EBC60445F836806360CB6883B155
:101E700046F6CC4504F1080303320024C0F6000501
:101E8000161956F8036C1E51CE680434AE5DB44288
:101E9000F6D3012101FA0CF1CEF8CC1081650020B7
:101EA000BDE8F08190F85C20013A012A14D880B591
:101EB0000A68BAB101F1040E9EE80450D1E9043178
:101EC000406C43EA4E7E41EA8C7100EBC20340F85D
:101ED00032E05960002080BD016E41F002010166D0
:101EE00001207047D1E90323D1E901CED206496927
:101EF00042EA8E7242EA0342006C114340F82C1011
:101F0000002080BD90F85CC0BCF1010F14D180B5F9
:101F100000689200D0F880C0DDF808E042EA0111C4
:101F200041EA43012CF03F0C41EA0E0141EA0C0169
:101F3000C0F88010002080BD016E41F004010166F0
:101F40000120704770470000704700002DE9F04302
:101F500090F85C70022F13D1D0F800C0402917D13F
:101F6000DCF890703F0700F09780DCF89070DCF8A8
:101F700090603D0AF7014FF048041FD5092716E08D
:101F8000016E41F0080101660120BDE8F08300BF49
:101F9000DCF898703F0700F07F80DCF89870DCF880
:101FA00098603D0AF7014FF04C0407D50827DCF88C
:101FB000806026FA07F707F001073D4405F0030C9F
:101FC00007590CEBCC0657F8365007EBC60E15F048
:101FD0008045556057F8365025F0604408BFC5F37A
:101FE0008A44146057F8365005F00055956057F84C
:101FF000364004F000441461BEF80440D461BEF8D9
:10200000064014F00F04D460DEF8044004F4801499
:102010005461DEF8044004F4001494619EF8074013
:1020200004F07F041462DEF804404FEAD474546272
:1020300027D046F6CC480024C0F600080EEB040674
:10204000377A651C1F55D76818F80770BD4218D23B
:10205000757A1F197D70D56818F80590A51C4D4537
:102060000FD2B57ABD70D56818F80590E51C4D45BE
:1020700007D2F57A0434FD70D56818F80550AC42E3
:10208000DCD3006840290CBFC0F894C0C0F89CC0E5
:102090000020BDE8F08300BF016E41F4807101664D
:1020A0000120BDE8F0830000704700002DE9F04FEB
:1020B00085B004460068016D426DD0F850B0456DA2
:1020C000076D466D036D01EA02080493436D0393A7
:1020D000036D0293436D0193D0F854A0D0F8509053
:1020E0005FEA496307D51AF0400104D04021016539
:1020F0002046FFF7D9FF0BEA050B5FEAC95008F449
:10210000E0550ED51AF480700BD02068D0F8D810A6
:10211000D0F8E02011404FF480720265204600F0B4
:102120006FFA37400BF007062DB120682946056588
:10213000204600F069FA07F038052EB120683146D4
:102140000665204600F000FA2DB120682946056595
:10215000204600F039FA5FEA895009D51AF4007078
:1021600006D020684FF400710165204600F04EFA59
:102170005FEA09600DD51AF080000AD02068D0F817
:10218000D410D0F8DC20114080220265204600F0F7
:1021900039FA5FEA894009D51AF4005006D0206860
:1021A0004FF400510165204600F028FA5FEA09402B
:1021B000DDE9011000EA010509D51AF4004006D056
:1021C00020684FF400410165204600F015FADDE972
:1021D000031008405FEA494105F460210AD51AF46A
:1021E000804207D022684FF480431365226E42F08C
:1021F0008002226600F4710521B120680165204645
:10220000FFF7A2FE25B120680565206E28432066F1
:10221000206E28B1204605B0BDE8F04FFFF792BE12
:1022200005B0BDE8F08F0000002804BF0120704712
:10223000F0B581B0044690F85C0028B9002084F81D
:102240005D00204600F024F92068816921F010012A
:10225000816100F0D3FA054620688169090705D538
:1022600000F0CCFA401B0B28F6D310E0816941F056
:102270000101816100F0C2FA054600BF2068816952
:10228000C9070FD100F0BAFA401B0B28F6D3206E15
:10229000032140F001002066012084F85C1001B0A9
:1022A000F0BD00BF826946F2004CC4F2000C42F05F
:1022B00002026045826102D16268CCF80021227C72
:1022C0008369012A23F0400318BF40338361627C95
:1022D0008369012A23F4804308BF03F580438361A7
:1022E000A27C8369012A23F4805318BF03F580532D
:1022F00083618569D4E902E325F4407545EA0E055A
:102300008561856925F0A4058561056925F01005BD
:1023100005619BB1012B0DD0022B09D08569032BE0
:1023200045F080058561056945F01005056105D119
:10233000202300E0042385692B43836104F1140505
:102340002ACD226A6FF0FF075E1E07EB052545EADE
:102350004665013A2A430025CFF6FF7505EB01419A
:102360001143BEF5407FC16110D104F1240646CE71
:10237000236B013A07EB06273A436FF00F0707EB91
:1023800003131A4305EB01411143C160D4E90D1356
:10239000E26BD0F8C0704AF250763A43C0F8C020E1
:1023A0000CF580670CF58042B84204BF4AF25072C7
:1023B000C4F200020CF50067C4F20006B84208BF80
:1023C00006F554722264D0F8807027F4F81747EAB3
:1023D0000141C0F8801002F170016164D0F88010F2
:1023E00021F0706141EA0361C0F8801002F1B00091
:1023F000A06402F5C470E06402F51870206502F56F
:102400001E70606502F55470002100BFC2E9001122
:10241000C2E90211C2E90411C2E90611C2E90811B8
:10242000C2E90A11C2E90C11C2E90E11C2E9101188
:10243000C2E91211C2E91411C2E91611C2E9181158
:10244000C2E91A11C2E91C11C2E91E11C2E9201128
:10245000C2E92211C2E92411C2E92611C2E92811F8
:10246000C2E92A11C2E92C11C2E92E11C2E93011C8
:10247000C2E93211C2F8D010D4328242C6D3002051
:102480000121A065206684F85C1001B0F0BD000059
:1024900010B59CB0044600201B90CDE91900CDE991
:1024A000170002A804305021FDF794FF206846F27F
:1024B0000041C4F20001884202D01CB010BD00BF30
:1024C0004FF4805002904FF00070109002A800F07E
:1024D000DBFA002818BFFEF7CDF841F24C00C4F239
:1024E0000200C16841F00071C160C16801F0007173
:1024F00001910199016841F001010160006817A98B
:1025000000F00100019001984FF4C0501790022094
:1025100018900020CDE9190009201B904FF0904041
:1025200000F076F815200021002200F0DFF91520D8
:1025300000F0CAF916200021002200F0D7F9162079
:1025400000F0C2F91CB010BDB0B58CB00C46054609
:1025500002A82821FDF73EFF40F29821C2F20001B7
:1025600000208D42019000902AD114F0010027D064
:1025700040F29820C2F2000002AA6B464021FFF709
:10258000E5FCE8B90398D8B9029840F20121411A54
:1025900040F20F2218BF0121801A18BF012001420A
:1025A0000ED1059804280BD3BDF902009FED051A42
:1025B00000EE100AB8EEC00A80EE010AFEF786F9B6
:1025C0000CB0B0BD00007A447047000090F85C1079
:1025D00001290BD1022180F85C1001688A6922F080
:1025E00001028A610021016600207047016E41F0FE
:1025F0000401016601207047704700007047000029
:1026000070470000704700007047000070470000EE
:102610002DE9F04F85B00E680390002E00F0E480A5
:10262000039841F2004500F12002009200F1384287
:10263000C4F600054FEAB2270623A84208BF0523C7
:10264000052F4FF000054FF000074FF0000838BF8E
:102650004FEAB223019302910BE000BF0E6808F12C
:10266000010836FA08F207F1020705F1040500F047
:10267000BB80012000FA08F216EA0209EED0D1F878
:1026800004A003200AF0030CACF10106012E00FAAD
:1026900007FB13D803988668D1E9024326EA0B06A4
:1026A000BB4033438360436823EA0202CAF300134A
:1026B00003FA08F31A43426006E000BF8C68BCF1DD
:1026C000030F08BF012C27D0039904FA07F3CA6847
:1026D0004FEA480E22EA0B026FEA0B001A43BCF1E4
:1026E000020FCA601ED16FF00301009E01EA58027A
:1026F00005F01C040F2156F802C001FA04FA0299F1
:102700002CEA0A0C0B69A34043EA0C03B350D1F83E
:1027100004A00AF0030C05E04FF0030C0CFA07F2DA
:10272000D043BE4603990CFA0EF30A681AF4403FF0
:1027300002EA000242EA03020A6002998ED041F2E4
:102740006003C4F202031A6840F2004E42F0010234
:102750001A601A68C4F2010E02F001020492049A8F
:1027600028F003024FF6084C7244CFF6FF7C05F0C8
:102770000C060F2052F80C3000FA06F40198A3431F
:1027800000FA06F6334342F80C30DEF808204B68B6
:1027900042EA090640F20C4CDC0258BF22EA090664
:1027A000CEF80860C4F2010CDCF800209C0242EA7A
:1027B000090658BF22EA0906CCF80060DEF80420BA
:1027C0009C0342EA090658BF22EA0906CEF80460D3
:1027D000DEF80020DB0342EA090658BF22EA0906B8
:1027E000CEF800603AE700BF05B0BDE8F08F00000A
:1027F0001823002A08BF2823C150704740F25450C4
:10280000C2F200000068704740F2000040F25451EC
:10281000C2F20000C2F2000140680A681044086079
:102820007047000080B5032000F08CF80F2000F006
:1028300009F800281CBF012080BD00F02BF8002003
:1028400080BD0000B0B540F20005C2F20005696825
:10285000F1B1044640F20800C2F200004FF47A726F
:102860000068B2FBF1F1B0FBF1F001F0FDF90146B7
:102870000F2C4FF001000AD8002918BFB0BD4FF04F
:10288000FF302146002200F031F800202C60B0BD5E
:102890000120B0BD82B041F25800C4F2020081684C
:1028A00041F001018160816801F00101019101990C
:1028B000016841F080510160006800F08050009094
:1028C000009802B000F0D6B8002848BF704700F06A
:1028D0001F01012202FA01F11C2202EAD0004EF28D
:1028E0000012CEF2000281507047000010B54EF683
:1028F0000C5CCEF2000CDCF80030C3F3022E8EF03C
:102900000704042C28BF0424BEF103034FF0FF3E4C
:102910000EFA04F438BF0023A14399400EFA03F3E2
:102920009A43114300F00F0200F160430901043A99
:1029300003F564436244002848BF02F10C03197098
:1029400010BD00004EF60C51CEF200010A684FF6A1
:10295000FF031A4060F30A2242F0806040F0FD70ED
:102960000860704747F21401C4F2000151F8142CBA
:10297000B0F5007F3CD0002874D1C86E02F4C0626C
:1029800020F48070B2F5806FC8662FD151F8140C16
:10299000012262F34A2041F8140C40F20800C2F20E
:1029A00000000068322250434DF68362C4F21B32AD
:1029B000A0FB0202900C00BF0A68520511D5421C10
:1029C0000FD00A6852050CD558B10A68520508D5CF
:1029D000012806D00A68520503D50228A0F1040098
:1029E000EAD10868400544BF0320704700207047C3
:1029F000C86E02F4C06240F48070B2F5806FC866A1
:102A0000F4D151F8140C012262F34A2041F8140C5D
:102A100040F20800C2F200000068322250434DF636
:102A20008362C4F21B32A0FB0202900C0A685205BA
:102A300011D5421C0FD00A6852050CD558B10A684E
:102A4000520508D5012806D00A68520503D5022888
:102A5000A0F10400EAD10868400544BF0320704794
:102A6000C4E700BF022060F34A2241F8142C002082
:102A70007047000047F20800C4F20000016841F40A
:102A800080410160704700002DE9F04182B00446AA
:102A9000807841F288060007C4F2020602D40020C2
:102AA0002FE000BF56F8300C5FEAC0080BD456F890
:102AB000300C40F0805046F8300C56F8300C00F0E6
:102AC00080500190019847F20007C4F2000738686F
:102AD00040F480703860FFF791FE05463868C00505
:102AE00000F10C81FFF78AFE401B0228F6D9032073
:102AF000B8F1000F05D456F8301C21F0805146F88B
:102B0000301C2168CA0717D18A071DD44A0723D46D
:102B10000A0729D4CA062FD48A0635D44A063BD4DC
:102B20000A0641D4CA0547D48A034DD48A0553D432
:102B30004A0559D467E000BF3268636822F0030297
:102B40001A4332608A07E1D53268A36822F00C028A
:102B50001A4332604A07DBD53268E36822F030025C
:102B60001A4332600A07D5D53268236922F0C002C1
:102B70001A433260CA06CFD53268636922F44072C4
:102B80001A4332608A06C9D53268A36922F44062CA
:102B90001A4332604A06C3D53268E36922F44052D0
:102BA0001A4332600A06BDD53268236A22F44042D5
:102BB0001A433260CA05B7D53268636A22F44032DC
:102BC0001A4332608A03B1D57269A36A22F0030204
:102BD0001A4372618A05ABD53268E36A22F4402257
:102BE0001A4332604A050ED53268236B22F4401234
:102BF0001A43B3F5801F326005D156F87C2C42F49D
:102C0000801246F87C2C0A050ED53268636B22F4DC
:102C100040021A43B3F5800F326005D156F87C2C80
:102C200042F4801246F87C2CCA040ED53268A36B9D
:102C300022F040721A43B3F1807F326005D156F81A
:102C40007C2C42F4801246F87C2C8A040ED5326823
:102C5000E36B22F040621A43B3F1006F326005D19A
:102C600056F87C2C42F4801246F87C2C4A040ED58F
:102C70003268236C22F040621A43B3F1006F326075
:102C800005D156F87C2C42F4801246F87C2C0A04BC
:102C90000ED53268636C22F040521A43B3F1805F64
:102CA000326005D156F87C2C42F4803246F87C2CF8
:102CB000CA030ED53268A36C22F040421A43B3F126
:102CC000804F326005D156F87C2C42F4803246F8B1
:102CD0007C2C49030ED57169E26C21F4401111433B
:102CE000B2F5001F716105D156F87C1C41F48011CA
:102CF00046F87C1C02B0BDE8F08100BFB06810F45B
:102D0000407010D0216D88420BD0B068B16820F4BB
:102D1000407041F48031B160B16821F48031B1601C
:102D2000B060C0070CD1B068216D20F4407008433A
:102D3000B0600020B8F1000F3FF5E3AEDBE600BF66
:102D4000FFF75CFD054641F2883700BFB068800799
:102D5000E9D4FFF753FD401BB842F7D9C7E600009E
:102D60002DE9F047002863D042F2000AC4F2020ABB
:102D70000446DAF800000D4600F00F0081420CD93D
:102D8000DAF8000020F00F002843CAF80000DAF853
:102D9000000000F00F00A8424AD1216841F2080863
:102DA000C807C4F2020803D1880740F1D080B5E01B
:102DB000606858F8082C022838D003283CD19201CA
:102DC00036D5D8F80420D8F8043042F20046C3F3D0
:102DD000031302F00302D8F804700133C0F2F406C2
:102DE000032A04BF41F20026C0F27A06B6FBF3F2D2
:102DF000D8F80430C7F306277A43C3F341630227A8
:102E000007EB4303B2FBF3F24BF20043C0F2C443BF
:102E10009A4259D9D8F8002012F0F00F49D089070A
:102E200052D5A16800294FD143E000BF910305D4DA
:102E30000120BDE8F08700BF5105F9D5D8F8001092
:102E400001F00C0104293FD0D8F8001001F00C016A
:102E5000082939D0D8F8001001F00C010C2933D121
:102E6000D8F80410D8F8042042F20047C2F3031245
:102E700001F00301D8F804300132C0F2F40703294D
:102E800004BF41F20027C0F27A07B7FBF2F1D8F88D
:102E90000420C3F306235943C2F34162022303EB28
:102EA0004202B1FBF2F14BF20042C0F2C442914245
:102EB0000AD9D8F80010082262F307114FF001096F
:102EC000C8F8001002E000BF4FF00009D8F8001069
:102ED00021F003010843C8F80000FFF78FFC064605
:102EE00041F28837D8F80000616800F00C00B0EBC0
:102EF000810F07D0FFF782FC801BB842F2D9032074
:102F0000BDE8F0872168880708D4B9F1000F1ED00A
:102F1000D8F8000020F0F00017E000BF480705D502
:102F2000D8F8000040F4E060C8F80000080706D5B3
:102F3000D8F80000072262F30D20C8F80000D8F886
:102F40000000A26820F0F0001043C8F80000DAF892
:102F5000000000F00F0085421BD2DAF8000020F0DC
:102F60000F002843CAF80000FFF748FC064641F26C
:102F7000883700BFDAF8000000F00F00A84207D041
:102F8000FFF73CFC801BB842F4D90320BDE8F08772
:102F90002168480707D5D8F80000E26820F4E0600F
:102FA0001043C8F80000080708D5D8F800002169C8
:102FB00020F4605040EAC100C8F80000D8F80000D2
:102FC00042F20041C0F2F40100F00C00042808466F
:102FD0002DD0D8F8000000F00C00082841F20020A5
:102FE000C0F27A0023D0D8F8002002F00C020C2A9C
:102FF0001CD1D8F80420D8F8043002F00302C3F33F
:103000000313D8F804700133032A08BF0146B1FB4B
:10301000F3F0D8F80410C7F30627C1F34161022288
:10302000784302EB4101B0FBF1F000E00020D8F85A
:10303000001046F69C42C1F30311C0F60002515C39
:1030400040F2080201F01F0120FA01F140F20000F5
:10305000C2F200000068C2F200021160BDE8F04751
:10306000FFF7F0BB40F2080041F20801C2F2000095
:10307000C4F202010068096846F6AC42C1F30221BD
:10308000C0F60002515C01F01F01C840704700000B
:1030900040F2080041F20801C2F20000C4F202014D
:1030A0000068096846F6AC42C1F3C221C0F60002CE
:1030B000515C01F01F01C8407047000041F20C0153
:1030C000C4F2020151F8040C42F20042C0F2F402D0
:1030D00000F00C000428104608BF704751F8040C9B
:1030E00000F00C00082841F20020C0F27A0025D040
:1030F00051F8043C03F00C030C2B1CBF002070475C
:1031000080B5D1F800C00B680CF0030CC3F3031EAC
:103110000B680EF1010EBCF1030F08BF02460968EF
:10312000B2FBFEF0C3F30623C1F341610222584310
:1031300002EB4101B0FBF1F0BDE8804070470000B8
:10314000002804BF012070472DE9F04182B00446F9
:10315000007841F20006C007C4F202061ED12078B2
:1031600080073DD42078000764D42078400700F120
:1031700087802078800600F1D980E569002D00F075
:103180004282B06800F00C000C2840F03181012D23
:1031900040F08E81012002B0BDE8F081B06800F0FF
:1031A0000C01F068082961D0032281F00C0122EAA9
:1031B00000000844B0FA80F0400957D161683068D7
:1031C000B1F5803F07D0B1F5A02F40F0E38040F487
:1031D00080203060306840F480303060E4E000BF30
:1031E000B068F16800F00C00042871D001F0030110
:1031F00080F00C0081F002010844B0FA80F0400930
:1032000066D1E1683068002900F0E08040F4807009
:103210003060FFF7F3FA05463068400500F10A8197
:10322000FFF7ECFA401B0228F6D9032002B0BDE8F4
:10323000F08100BF6169D6F89400002900F0948005
:1032400040F00100C6F89400FFF7D8FA054600BF29
:10325000D6F8940080073FF588AFFFF7CFFA401B00
:103260000228F5D9032002B0BDE8F0813068800360
:103270007FF575AF606800287FF471AF3EE000BF56
:10328000B06D5FEAC00808D4B06D40F08050B06502
:10329000B06D00F080500190019847F20007C4F231
:1032A00000073868C0052DD4386840F48070386055
:1032B000FFF7A4FA054600BF3868C00522D4FFF71F
:1032C0009DFA401B0228F7D9032002B0BDE8F08127
:1032D0003068400501D5E06880B17068216920F050
:1032E000FE4040EA0160706040F20000C2F200005F
:1032F0000068FFF7A7FA00283FF434AF012002B0BE
:10330000BDE8F081A168D6F89000012908D0052910
:1033100040F0AE8040F00400C6F89000D6F890006F
:1033200040F00100C6F89000AEE000BFA169D6F8F9
:103330009800002900F0868040F00100C6F898004F
:10334000FFF75CFA054600BFD6F8980080073FF506
:1033500014AFFFF753FA401B02284FF00300F3D9D4
:1033600002B0BDE8F08100BF20F00100C6F8940073
:10337000FFF744FA054600BFD6F8940080077FF5B2
:10338000F4AEFFF73BFA401B0228F5D9032002B048
:10339000BDE8F08120F4803030603068002920F4EE
:1033A0008020306000F0BE80FFF728FA054600BF9D
:1033B000306880033FF5D3AEFFF720FA401B642846
:1033C000F6D9032002B0BDE8F08100BF20F4807080
:1033D0003060FFF713FA0546306840057FF5C2AE4E
:1033E000FFF70CFA401B02284FF00300F4D9B7E7AF
:1033F000306820F080703060FFF700FA022D05463B
:103400000CD100BF3068800140F1B880FFF7F6F9B9
:10341000401B02284FF00300F4D9A1E73068800177
:1034200040F1EA80FFF7EAF9401B02284FF0030061
:10343000F4D995E77068216920F0FE4040EA016008
:1034400070608FE620F00100C6F89800FFF7D6F90B
:10345000054600BFD6F8980080077FF58EAEFFF7CF
:10346000CDF9401B02284FF00300F3D978E700BFE5
:1034700020F00100C6F89000D6F89000002920F056
:103480000400C6F890005DD0FFF7B8F9054641F298
:10349000883700BFD6F89000800765D4FFF7AEF9F3
:1034A000401BB842F6D9032002B0BDE8F08100BF4E
:1034B000F068216A00F003028A427FF41FAF626A5B
:1034C0006FF00F0300F0F00103EB021291427FF462
:1034D00015AFA16A00F4FE42B2EB012F7FF40EAFEC
:1034E000E16A00F07842B2EBC16F7FF407AF226B64
:1034F0000023CFF6E07303EA025200F4C001A2F504
:10350000001291427FF4FAAE616B4FF07E4202EA04
:10351000016100F0C06001F17E4188427FF4EEAEAF
:1035200071E000BFFFF76AF9054600BF306880030D
:103530007FF515AEFFF762F9401B64284FF00300DA
:10354000F4D90DE7FFF75AF9054641F2883700BF75
:10355000D6F89000800707D5FFF750F9401BB84216
:103560004FF00300F4D9FBE6B8F1000F3FF501AED0
:10357000B06D20F08050B065FBE500BFF06848F208
:103580000C01C0F29F1104F1200700EA010C8ECF5C
:103590006FF00F00D4E90C5400EB02100022CFF6BC
:1035A000E07241EA0C0102EA05520843A2F500125A
:1035B0004FF07E4540EA032005EA0465104305F11B
:1035C0007E4540EAC7602843F060306840F0807074
:1035D0003060F06840F08070F060FFF70FF904464B
:1035E000306880010FD4FFF709F9001B02284FF063
:1035F0000300F5D9B4E600BFF0684FF6FC71CFF6D2
:10360000EE610840F060002002B0BDE8F0810000EB
:1036100070470000B0B582B001684A688B6803F05B
:103620004105012D08D112F0400505D0C16C02B052
:10363000BDE8B040084700BF9D0707D512F08005E0
:1036400004D0016D02B0BDE8B040084713F4B07F6C
:1036500018BF12F0200501D102B0B0BD5D0618D52B
:1036600090F85D50032D09D100200190C8680190A9
:1036700088680190019802B0B0BD00BF056E45F0AA
:103680000405056600250195CD6801958D680195B5
:10369000019D9D0604D4DB0511D4036EDBB9DBE785
:1036A000056E45F001050566002501958D680195BB
:1036B0000D6825F040050D60019DDB05EDD5036E1D
:1036C00043F008030366002301938B680193019B79
:1036D000036E002BC0D04B68920723F0E0034B60D1
:1036E0004FF0010380F85D3026D04A6845F6B934C2
:1036F00022F003024A60816DC0F6000459B105460C
:1037000008468C63FEF73CF90146284619B1016E64
:1037100041F040010166416D00299DD08C63044653
:103720000846FEF72DF9002896D0206E40F04000A4
:10373000206602B0B0BD00BF02B0BDE8B040FFF7E8
:1037400067BF0000002804BF01207047416A19B11B
:1037500000210161142104E04168B1F5827F02D0AB
:103760001C2100224250B0B50025856290F85D1002
:1037700029B980F85C50044600F056F82046022132
:1037800080F85D100168D0F80CE00B68BEF5E06FC2
:1037900023F040030B6098BF01254EF40063B3F59E
:1037A000706F4FEA053C1CBF00258562D0E90154CB
:1037B000D0E9043205F4827504F404442C4403F087
:1037C00002032344846902F00102C5691A4404F427
:1037D00000731A4405F03803056A1A4405F08003A3
:1037E000856A1A4405F400531A430A600422436AA6
:1037F0000EF4706502EA1442446B45EA0C0503F0CE
:1038000010032A4304F008041A4322434A60CA6999
:1038100022F40062CA6100210122016680F85D2065
:10382000BDE8B040084670472DE9F04186B0044637
:10383000216843F60002C4F2000200209142CDE963
:103840000400CDE90200019000F0908043F60040B2
:10385000C4F20000814269D043F20000C4F20100CA
:10386000814240F0A98041F24C00C4F2020041695B
:1038700040F2080841F4805141614169002601F499
:103880008051009100990168C4F2020841F00101E1
:103890000160006801A900F0010000900098E0209C
:1038A000019002200290052005904FF09040CDE954
:1038B0000366FEF7ADFE40F27815C2F200050A205D
:1038C0008027C5E900802846C5E90266C5E9047677
:1038D000C5E906662E62FEF7E9F8002818BFFCF776
:1038E000C9FEA565AC6240F2D81508F11400C2F219
:1038F00000050B21102285E8C7002846C5E90566AA
:10390000C5E90766FEF7D2F8002818BFFCF7B2FE3B
:103910002320002100226565AC62FEF7E7FF23202B
:10392000FEF7D2FF06B0BDE8F08100BF41F24C00C7
:10393000C4F20200C16841F40041C160C16801F4F1
:10394000004100910099016841F0020101600068A6
:1039500000F00200009000983820019002200290B0
:103960000020CDE9030006201EE000BF41F24C011B
:10397000C4F20201CA6842F48042CA60CA6802F412
:1039800080420092009A0A6842F002020A600968C6
:1039900001F00201009100994FF460410191022170
:1039A000CDE9021004900520059040F20040C4F6D5
:1039B000000001A9FEF72CFE06B0BDE8F081000072
:1039C000704700007047000070B590F85D50012D01
:1039D00008D100294FF0010C18BF002A0ED1604613
:1039E00070BD00BF4468B4F5827F0DD1042D4FF047
:1039F000020CF4D18568002DEBD0F0E7002BEED05F
:103A000090F85C50012D01D1022070BD012580F895
:103A10005C5090F85D50042D1CBF052580F85D506A
:103A20000025056681638387C3870264A0F844305C
:103A3000A0F846300168C0E91355C4684D68B4F574
:103A4000E06F25F4C0454D604D6803D925F48053DF
:103A50004B6039E045F480554D60456DAD69B5F575
:103A6000806F11D14D68DB0706D125F480434B6090
:103A7000C38F5B0807E000BF45F480434B60C38FF2
:103A8000012505EB5303C387836D9B69B3F5806FF5
:103A90001AD14B6823F480534B60B0F846504B6802
:103AA000ED0707D123F400534B60B0F846305B08B4
:103AB00008E000BF43F400534B60B0F846300125E6
:103AC00005EB5303A0F8463090F85D3045F6E93534
:103AD00045F6F134C0F60005C0F60004D0F858C031
:103AE000042B08BF2C4645F6F93545F6C143C0F610
:103AF0000005C0F6000308BF2B4645F6C93E002668
:103B00000CF12C05C0F6000E85E81840CCF83860A2
:103B1000B0F8463004460C316046FEF759F838B12B
:103B2000206E40F010002066012084F85C6070BDBB
:103B30002568606D696805F10C0241F0010169605A
:103B4000C0E90B66C0E90D66A16BE38FFEF740F894
:103B500040B1206E40F010002066002084F85C0028
:103B6000012070BD20680168490603D4016841F056
:103B7000400101604FF0000C84F85CC0416841F0E6
:103B800020014160416841F002014160604670BD22
:103B9000006843F20001C4F20101884218BF704777
:103BA000B0B540F20044C4F60004204604210122CE
:103BB000FEF71EFE40F27005C2F20005288895ED62
:103BC000063A6FF39F3000EE100A9FED212AB8EEFF
:103BD000400A9FED215A30EE434A9FED1E3A20EEF7
:103BE000021AB4EE454AF1EE10FA21EE031A07DD8F
:103BF00095ED072A9FED1A3A32EE033A0BE000BF2B
:103C00009FED165A95ED073AB4EE454AF1EE10FADB
:103C100003DA33EE023A85ED073A85ED060A31EE16
:103C2000030A20460421002285ED081A85ED020AC8
:103C3000FEF7DEFD40F2FC2040F20C01C2F2000073
:103C4000C2F200012A460123BDE8B040FFF7BCBE26
:103C5000DB0FC9400000803800000046000000C6AD
:103C6000DB0FC9C070470000411E0020B0EB116F90
:103C70001CBF012070474EF21002CEF200025160CC
:103C80004EF62351CEF20001F0230B700721906015
:103C900011607047704700007047000070470000D7
:103CA00090F83C20012A04BF02207047B0B5D1E94A
:103CB0000232D1E900CE22F47C5223F4705343EA5D
:103CC000020448F2FF73CEF6F0730EEA03022243B9
:103CD00003F5006404EA0C0442EA040C0C6903F5E1
:103CE000C05222404C6942EA0C02224303F5605460
:103CF00022400C6B03F5F04323401A438B6940F2DA
:103D0000000CCC69CEF6FF7C0CEA034C144302682D
:103D100042F60043C4F201039A4244EA0C030BD07A
:103D200045F20004C4F20104A24205D043F200446B
:103D3000C4F20104A24217D14FF6FF74CDF60F442E
:103D400003EA040ED1E9084CD1E90A310025CDF689
:103D5000F04505EA035343EA0E0324F008552B43CC
:103D60002CF000552B430B430021536480F83C108A
:103D70000020B0BD70470000704700007047000091
:103D800090F83C20012A4FF0020266D070B580F80E
:103D90003D20026842F6004C54689368C4F2010C5E
:103DA00045F2000E6245C4F2010E18BF72452BD1D8
:103DB0004D6824F470042C434FF68F75CFF6FF55F1
:103DC0000E682C4042F6FF35C4F201053443AA4286
:103DD00054600DDC40F2FF76C4F20006B2421BDCF8
:103DE000B2F1804F2CD040F20046C4F2000625E02C
:103DF00043F6FF74C4F20104A24219DC62451FD0ED
:103E000043F2004618E000BF43F20045C4F201054A
:103E1000AA42CDD0D0E700BF40F60006C4F20006AB
:103E2000B2420DD040F60046C4F2000606E000BFE4
:103E3000724505D044F20006C4F20106B24204D134
:103E4000896823F08003194391600121002280F8E2
:103E50003D1080F83C20BDE87040104670470000DF
:103E600070470000002804BF0120704710B50446C9
:103E700090F83D0028B9002084F83C00204600F06E
:103E800023F8022084F83D002068211D02F0A2F8EA
:103E9000012084F8480084F83E0084F83F0084F84C
:103EA000400084F8410084F8420084F8430084F81C
:103EB000440084F8450084F8460084F8470084F8FC
:103EC0003D00002010BD000080B582B0006840F6C3
:103ED0000041C4F2000188421ED042F60041C4F203
:103EE0000101884225D141F25800C4F202008168E4
:103EF000002241F4006181608068002100F40060CC
:103F0000019001981820FEF7F1FC182002B0BDE8DE
:103F10008040FEF7D9BC00BF41F25800C4F2020055
:103F2000016841F008010160006800F0080000909D
:103F3000009802B080BD000090F83D10012917D113
:103F4000022180F83D10016842F6FF30C4F2010002
:103F500081420FDC40F2FF70C4F20000814219DCA4
:103F6000B1F1804F2ED040F20040C4F2000027E0B3
:103F70000120704743F6FF70C4F20100814215DC56
:103F800042F60040C4F2010081421BD043F20040DF
:103F900014E000BF40F60000C4F20000814211D0DE
:103FA00040F60040C4F200000AE000BF45F2000005
:103FB000C4F20100814205D044F20000C4F20100C5
:103FC00081420CD188680722C0F201020240062A11
:103FD0004FF00000CDD0B2F5803F08BF70470868B1
:103FE00040F00100086000207047000090F83D108C
:103FF00001291BD1022180F83D10016842F6FF32F1
:10400000C868C4F20102914240F00100C8600FDCB0
:1040100040F2FF70C4F20000814219DCB1F1804F20
:104020002ED040F20040C4F2000027E0012070478B
:1040300043F6FF70C4F20100814215DC42F60040F5
:10404000C4F2010081421BD043F2004014E000BFE3
:1040500040F60000C4F20000814211D040F600405A
:10406000C4F200000AE000BF45F20000C4F2010003
:10407000814205D044F20000C4F2010081420CD11B
:1040800088680722C0F201020240062A4FF00000B1
:10409000CDD0B2F5803F08BF7047086840F00100FE
:1040A000086000207047000090F83C20012A4FF083
:1040B000020200F0A38010B580F83D200468882239
:1040C000A368CFF6CE721A40A2600B68B3F5005F0A
:1040D0000EDA3F2B22DD5F2B3CDD602B00F0B08041
:1040E000702B00F09D80B3F5805F00F07E8009E1C9
:1040F0002F22C0F21002934218DD4F21C0F21001AE
:104100008B425DDD5021C0F210018B4263D06021F3
:10411000C0F210018B425ED0702157E01F2B0FDCE4
:10412000002B58D0102B56D0ECE000BFB3F1101F7D
:104130000CDAB3F5005F63D0B3F5801F4BD0E1E03C
:10414000202B48D0302B46D0DCE000BF43D02021CC
:104150003CE000BF402B00F0A580502B40F0D28007
:10416000D1F804C0D1F80CE0236A216A21F00102E1
:10417000A4F18041A1F596314FEAB12109292262CB
:104180000AD8012202FA01F140F2E52211421EBFD3
:10419000216A21F004012162A16923F00A0221F0C1
:1041A000F00141EA0E1142EA0C02A1612262A1680B
:1041B0004FF68872CFF6CF721140573114E000BF2E
:1041C0003021C0F210018B4205D04021C0F2100115
:1041D0008B4240F09780A1684FF68872CFF6CF727D
:1041E0001140194341F00701A1600022012180F82C
:1041F0003D10002180F83C10BDE81040104670478B
:10420000D1E901C3C968A26843EA0C0322F47F42E2
:1042100043EA01211143A160A16841F48041E3E731
:10422000D1E901C3C968A26843EA0C0322F47F42C2
:1042300043EA01211143A160A16841F07701D3E76E
:10424000D1F804C0D1F80CE0236A226A42F600419A
:10425000C4F201018C4222F0100121620BD045F220
:104260000001C4F201018C4205D043F20041C4F2C6
:1042700001018C4203D1216A21F040012162A16930
:1042800023F0A00221F4704141EA0E3142EA0C12FF
:10429000A1612262A1684FF68872CFF6CF721140F9
:1042A0006731A1E7D1F804C0D1F80CE0236A216A94
:1042B00021F00102A4F18041A1F596314FEAB1212C
:1042C000092922620AD8012202FA01F140F2E5220C
:1042D00011421EBF216A21F004012162A16923F06D
:1042E0000A0221F0F00141EA0E1142EA0C02A1613A
:1042F0002262A1684FF68872CFF6CF721140473123
:1043000072E700BF012271E770470000F0B581B08D
:1043100004460068C5680669B10717D515F00201A3
:1043200014D06FF0020101610121217780698007BB
:1043300004D02046FFF7E8FF06E000BF204600F06B
:10434000CBF8204600F006FB00202077700719D537
:1043500015F0040016D020686FF0040101610221FD
:104360002177806910F4407F04D02046FFF7CCFF0E
:1043700006E000BF204600F0AFF8204600F0EAFA61
:1043800000202077300717D515F0080014D02068DA
:104390006FF00801016104212177C069800703D013
:1043A0002046FFF7B1FF05E0204600F095F82046D3
:1043B00000F0D0FA00202077F00619D515F0100093
:1043C00016D020686FF01001016108212177C069C3
:1043D00010F4407F04D02046FFF796FF06E000BFB0
:1043E000204600F079F8204600F0B4FA002020774B
:1043F000F00718BF15F0010006D020686FF001012A
:104400000161204600F06AFB16F4025F05F08007A8
:1044100018BF002F02D1F00509D410E020686FF416
:10442000025101612046FFF737FCF00507D537B18F
:1044300020686FF4807101612046FFF72BFC700645
:1044400009D515F0400006D020686FF040010161E9
:10445000204600F0C5FBB00609D515F0200006D0B7
:1044600020686FF0200101612046FFF717FCF00281
:1044700009D515F4801006D020686FF48011016111
:104480002046FFF779FCB00209D515F4001006D0DC
:1044900020686FF4001101612046FFF76BFC700289
:1044A00009D515F4800006D020686FF48001016101
:1044B0002046FFF763FC30020CD515F4000009D04C
:1044C00021686FF4000220460A6101B0BDE8F040A7
:1044D000FFF7C6BC01B0F0BD7047000090F83C305B
:1044E000012B04BF022070474FEAB202052A00F2F6
:1044F000F7812DE9F041DFE812F007004D0195004A
:10450000F1005700A90100BF03681D6A1A6AA3F1F0
:10451000804622F001021A621A46D3F8048052F84B
:1045200018CF8F68A6F59636D1F800E025F0020581
:104530004FEAB626092E45EA07050DD80127B740F0
:1045400040F2E524274207D01C6A25F0080524F034
:1045500004041C62CC682543092E0CD80124B44005
:1045600040F2E52634421FBFD1E9054628F44077E2
:104570003C4344EA06084FF68C74CFF6FE740CEA0E
:10458000040747EA0E07C3F804809F614F68096972
:104590005F631D629F6947F008079F619F6927F06D
:1045A00004079F6190E100BF0368D3F820C01A6A36
:1045B000A3F1804722F480321A621A46A7F5963793
:1045C0005D6852F8508FD1F800E08E684FEAB72747
:1045D000092F0AD80124BC4040F2E5273C421EBF07
:1045E0004C6925F4803545EA04252CF4003747EA68
:1045F00006474FF68C76CFF6FE76033606EA0806B7
:1046000046EA0E065D601E654E6809699E641F627B
:104610001F6D47F008071F651F6D27F004071F6512
:1046200052E100BF036842F600461D6A1A6AC4F2EE
:10463000010622F480721A621A46D3F804C052F8B6
:104640001C8FB3428E68D1F800E025F4007545EA6E
:1046500006250BD045F20006C4F20106B34205D090
:1046600043F20046C4F20106B34208D11E6A25F4A3
:10467000006526F480661E62CE6845EA0625A3F131
:104680008046A6F596364FEAB626092E0DD80127A4
:1046900007FA06F640F2E5273E421FBFD1E905675B
:1046A0002CF44054374344EA071C4FF68C74CFF681
:1046B000FE7404EA080444EA0E07C3F804C0DF618C
:1046C0004F680969DF631D62DF6947F00807DF6132
:1046D000DF6927F00407DF61F6E000BF036842F6F8
:1046E00000461D6A1A6AC4F2010622F480521A6258
:1046F0001A46D3F804C052F81C8FB3428E68D1F822
:1047000000E025F4005545EA06350BD045F20006D9
:10471000C4F20106B34205D043F20046C4F20106DA
:10472000B34208D11E6A25F4004526F480461E6275
:10473000CE6845EA0635A3F18046A6F596364FEADF
:10474000B626092E0DD8012707FA06F640F2E5270E
:104750003E421FBFD1E905672CF44044374344EA89
:10476000871C48F6FF44CFF6FF6404EA080444EAD5
:104770000E27C3F804C0DF614F6809691F641D621A
:10478000DF6947F40067DF61DF6927F48067DF6175
:1047900099E000BF036842F600461D6A1A6AC4F237
:1047A000010622F010021A621A46D3F804C052F829
:1047B00018EFB3428E68D1F8008025F0200545EA55
:1047C00006150BD045F20006C4F20106B34205D02F
:1047D00043F20046C4F20106B34208D11E6A25F036
:1047E000800526F040061E62CE6845EA0615A3F154
:1047F0008046A6F596364FEAB626092E0DD8012733
:1048000007FA06F640F2E5273E421FBFD1E90567E9
:104810002CF44064374344EA870C48F6FF44CFF653
:10482000FF640EEA040747EA0827C3F804C09F6143
:104830004F6809699F631D629F6947F400679F6124
:104840009F6927F480679F613DE000BF0368D3F84C
:1048500020C01A6AA3F1804722F480121A621A4615
:10486000A7F596375D6852F8508FD1F800E08E6852
:104870004FEAB727092F0AD80124BC4040F2E527A8
:104880003C421EBF4C6925F4802545EA84252CF462
:10489000001747EA065748F6FF46CFF6FF6606F5CB
:1048A000407606EA080646EA0E265D601E654E68FA
:1048B0000969DE641F621F6D47F400671F651F6D85
:1048C00027F480671F6509021368194311600021EE
:1048D000BDE8F041002280F83C200846704700BF48
:1048E0000121002280F83C2008467047002804BFC0
:1048F0000120704710B5044690F83D0028B900200B
:1049000084F83C00204600F023F8022084F83D00A3
:104910002068211D01F05EFB012084F8480084F826
:104920003E0084F83F0084F8400084F8410084F899
:10493000420084F8430084F8440084F8450084F879
:10494000460084F8470084F83D00002010BD0000B8
:10495000704700007047000080B5D9B10B1F4FEAC7
:10496000B30E43224FF03F0CBEF1040F38BF0CEBE7
:10497000B302825C012A1CBF012080BDBEF1030F7F
:104980001ED8DFE80EF00319111500BF022280F8CF
:104990003F2018E090F83E20012A1CBF012080BD76
:1049A000022280F83E200EE0022280F841200AE038
:1049B000022280F8422006E0022280F8402002E035
:1049C000022280F84320026801F01F010120136ACF
:1049D00000FA01F18B431362136A0B43A2F1804189
:1049E000A1F596314FEAB1210729136258D88840C2
:1049F00010F0E50F54D0506C42F6FF31C4F20101C3
:104A000040F400408A4250640EDC40F2FF70C4F271
:104A10000000824218DCB2F1804F2DD040F20040FD
:104A2000C4F2000026E000BF43F6FF70C4F20100AC
:104A3000824215DC42F60040C4F2010082421BD0E3
:104A400043F2004014E000BF40F60000C4F2000052
:104A5000824211D040F60040C4F200000AE000BFDC
:104A600045F20000C4F20100824205D044F2000089
:104A7000C4F2010082420CD190680721C0F201010A
:104A8000014006294FF0000008D0B1F5803F08BF73
:104A900080BD106840F001001060002080BD00BFA4
:104AA00042F6FF30C4F201008242AEDD43F6FF70F1
:104AB000C4F201008242BDDD44F20000C4F20100F4
:104AC0008242D9D045F20000C4F201008242E0D116
:104AD000506C40F400405064CEE70000006840F69F
:104AE0000041C4F20001884218BF704740F27000D4
:104AF000C2F2000090ED080A90ED092A9FED311AEC
:104B000030EE420AB4EE410AF1EE10FA1EDD9FEDDE
:104B10002E2A00BF30EE020AB4EE410AF1EE10FA7E
:104B200014DD30EE020AB4EE410AF1EE10FA0DDDAA
:104B300030EE020AB4EE410AF1EE10FA06DD30EE74
:104B4000020AB4EE410AF1EE10FAE3DC9FED1F1AFF
:104B5000B4EE410AF1EE10FA1EDA9FED1D2A00BFF5
:104B600030EE020AB4EE410AF1EE10FA14DA30EE39
:104B7000020AB4EE410AF1EE10FA0DDA30EE020A42
:104B8000B4EE410AF1EE10FA06DA30EE020AB4EEA3
:104B9000410AF1EE10FAE3DB9FED0E1A9FED0E2AAB
:104BA00020EE010A80EE020A90ED031A9FED0B2A17
:104BB00021EE021A31EE000A80ED030A016A416219
:104BC000704700BFDB0F4940DB0FC9C0DB0F49C096
:104BD000DB0FC9409A99193E6F12833A9A99593F4F
:104BE0007047000090F88410012904BF022070472C
:104BF0002421C0F8881001680A680B6822F000526E
:104C000023F001030B60002343660A602021C0F8F3
:104C1000881080F884300020704700007047000042
:104C20007047000090F88420012A04BF02207047DA
:104C3000B0B52422C0F888200268D0F864E0D2F829
:104C400000C01368BEF1000F23F0010313609368E6
:104C500023F0606341EA0301916019D09368916881
:104C600046F6EC4E490FC0F6000E46F6F4451EF827
:104C70000140C0F60005695CC3F34263E400B4FB85
:104C8000F1F11EF80340EB5CE500B5FBF3F301E046
:104C900001210123A0F86A102021A0F86830C2F891
:104CA00000C0C0F88810002180F884100020B0BD3A
:104CB00090F88420012A04BF02207047B0B5242256
:104CC000C0F888200268D0F864E0D2F800C0136809
:104CD000BEF1000F23F001031360936823F06043DB
:104CE00041EA0301916019D09368916846F6EC4E51
:104CF000490FC0F6000E46F6F4451EF80140C0F616
:104D00000005695CC3F34263E400B4FBF1F11EF8F3
:104D10000340EB5CE500B5FBF3F301E00121012367
:104D2000A0F86A102021A0F86830C2F800C0C0F8CE
:104D30008810002180F884100020B0BD704700006A
:104D4000704700007047000070B5026840F62F04FD
:104D5000D369116896681C40202C0BD101F0200407
:104D600006F080552D1916D0416F61B3BDE8704033
:104D7000084700BF40F60F052B420CD00125C1F2B9
:104D8000000506EA050C40F22015C0F200450D4072
:104D900015EB0C0524D1C46EDD0615D5012C13D1FD
:104DA00011F0100510D0102111629168490661D4EC
:104DB000B0F85C10B0F85E20B0F85E30002B18BF81
:104DC000914240F0518270BDDD0215D516F4800588
:104DD00012D04FF480111162BDE87040FFF7B0BFF0
:104DE000DD0718BF11F4807540F020819D0706F0A3
:104DF000010E00F1278130E11A0606D501F080028C
:104E000006F40006921940F0AF825A0640F1028182
:104E100011F0400200F0FE80016851E8001F0268B6
:104E200021F0400142E80013DBB1016851E8001FA6
:104E3000026821F0400142E8001393B1016851E893
:104E4000001F026821F0400142E800134BB10168E5
:104E500051E8001F026821F0400142E80013002BD6
:104E6000DAD12021C0F8881000218167BDE87040A8
:104E700000F032BBD0F880100A685368B0F85C408C
:104E800099B2002900F0B880A14280F0B580A0F866
:104E90005E301168890600F1A38000BF016851E807
:104EA000001F026821F4807142E80013E3B1016839
:104EB00051E8001F026821F4807142E800139BB1A1
:104EC000016851E8001F026821F4807142E8001374
:104ED00053B1016851E8001F026821F4807142E873
:104EE0000013002BDAD100BF016851E8021F0268ED
:104EF00021F0010142E80213BBB3016851E8021F2F
:104F0000026821F0010142E8021373B3016851E81D
:104F1000021F026821F0010142E802132BB301686D
:104F200051E8021F026821F0010142E80213002B40
:104F3000DAD11AE0016851E8021F026821F040014D
:104F400042E80213DBB1016851E8021F026821F058
:104F5000400142E8021393B1016851E8021F026860
:104F600021F0400142E802134BB1016851E8021FF1
:104F7000026821F0400142E80213002BDAD120211F
:104F8000C0F88C100021C166016851E8001F02685A
:104F900021F0100142E80013DBB1016851E8001F65
:104FA000026821F0100142E8001393B1016851E852
:104FB000001F026821F0100142E800134BB10168A4
:104FC00051E8001F026821F0100142E80013002B95
:104FD000DAD1D0F8801004460846FCF795FC20464C
:104FE00002210167B0F85C10B0F85E20891A89B21E
:104FF000BDE87040FFF712BE8C427FF4E4AE126849
:1050000092067FF5E0AE02220267BDE87040FFF72E
:1050100005BE00BF1A0240F1B38111F0804200F0DA
:10502000AF81BDE87040FFF789BE00BF0125156262
:10503000D0F8905045F00105C0F890509D0706F05B
:10504000010E0AD5BEF1000F07D002241462D0F879
:10505000904044F00404C0F890405C070AD5BEF1CB
:10506000000F07D004251562D0F8905045F00205D6
:10507000C0F890501D070CD501F0200555EA0C052D
:1050800007D008251562D0F8905045F00805C0F803
:1050900090501D050BD511F0806508D04FF40065C8
:1050A0001562D0F8905045F02005C0F89050D0F827
:1050B0009050002D3FF487AE9B060BD501F02001E8
:1050C00006F08053C91805D0416F19B104468847CE
:1050D00022682046D0F89010926801F0280102F072
:1050E0004002891806D10446FFF72CFE0020C4F8C0
:1050F000900070BD016851E8001F026821F49071B2
:1051000042E80013DBB1016851E8001F026821F496
:10511000907142E8001393B1016851E8001F0268E2
:1051200021F4907142E800134BB1016851E8001F6F
:10513000026821F4907142E80013002BDAD14FF697
:10514000FE71CEF6FF7100BF026852E8022F0368BD
:105150000A4043E80226C6B1026852E8022F0368FB
:105160000A4043E8022686B1026852E8022F03682B
:105170000A4043E8022646B1026852E8022F03685B
:105180000A4043E80226002EDED1C16E012924D157
:10519000016851E8001F026821F0100142E8001385
:1051A000DBB1016851E8001F026821F0100142E8FC
:1051B000001393B1016851E8001F026821F010014B
:1051C00042E800134BB1016851E8001F026821F06A
:1051D000100142E80013002BDAD12021C0F88C1016
:1051E0000021C166026841679168490640F1C480A8
:1051F000016851E8021F026821F0400142E80213F1
:10520000DBB1016851E8021F026821F0400142E869
:10521000021393B1016851E8021F026821F04001B6
:1052200042E802134BB1016851E8021F026821F005
:10523000400142E80213002BDAD1D0F88010002997
:1052400000F09A8046F27132C0F600020446084629
:105250008A63FCF795FB00283FF4B5ADD4F88000D5
:10526000816BBDE870400847891A00BF026852E8A8
:10527000002F036822F4907243E80026DEB1026832
:1052800052E8002F036822F4907243E8002696B19A
:10529000026852E8002F036822F4907243E8002667
:1052A0004EB1026852E8002F036822F4907243E87E
:1052B0000026002EDAD14FF6FE72CEF6FF7200BF46
:1052C000036853E8023F0668134046E80235C5B15B
:1052D000036853E8023F0668134046E8023585B18B
:1052E000036853E8023F0668134046E8023545B1BB
:1052F000036853E8023F0668134046E80235002D74
:10530000DED12022C0F88C200022C266426700BF96
:10531000026852E8002F036822F0100243E80026DA
:10532000DEB1026852E8002F036822F0100243E861
:10533000002696B1026852E8002F036822F010029E
:1053400043E800264EB1026852E8002F036822F0BD
:10535000100243E80026002EDAD1022289B2026749
:10536000BDE87040FFF75ABC816F00293FF42BADB8
:10537000BDE87040084700BFBDE87040FFF7E2BCE1
:10538000DA017FF520ADB1F1FF3FC8BF70BDBDE8C8
:105390007040FFF745BC000010B5D0B10446D0F80E
:1053A000880028B9002084F88400204600F026F800
:1053B0002420C4F888002068A16A026822F0010253
:1053C000026011B1204600F0A9FE204600F0D4FF93
:1053D00010B1012010BD00BF2168486820F4904042
:1053E0004860886820F02A008860086840F0010260
:1053F00020460A60BDE8104000F004BF70B59CB0C4
:10540000044602A8002508304C211B95CDE919550A
:10541000CDE91755FAF7DEFF206843F60001C4F224
:105420000101884202D01CB070BD00BF0120CDE94F
:10543000020502A8FDF728FB002818BFFBF71AF9A0
:1054400041F24C00C4F202004169002641F480415F
:105450004161416901F4804101910199016841F084
:1054600002010160006817A900F002000190019894
:10547000C02017900220189007201B9040F2004097
:10548000C4F60000CDE91966FDF7C2F840F23825F0
:105490003020C2F20005C4F202001821802285E803
:1054A00043002846C5E90362C5E90566C5E9076604
:1054B000FCF7FCFA002818BFFBF7DCF825200021D8
:1054C0000022C4F88050AC62FDF710FA2520FDF7E9
:1054D000FBF91CB070BD000070470000FEE7000043
:1054E00010B592B0002468463C211194CDE90F44D8
:1054F000FAF770FF40F2A000C2F200004FF0A041A6
:105500004FF4403201234FF0040C80E816004FF4B2
:105510008071C0E90344C0E9053C8183036280F8DF
:10552000244080F83840C46380F84040FCF72AF8F3
:10553000002818BFFBF79EF840F2A000C2F200005E
:105540000FA90F94FBF78AFD002818BFFBF792F80C
:105550000220C0F23040009009200190012002900A
:105560007F200390042004900020022105900891E0
:10557000ADF824008DF8260080218DF8300040F22F
:10558000A000CDE90A11C2F200006946FBF722FA39
:10559000002818BFFBF76EF80420C0F660000090EA
:1055A00040F20F10019040F2A000C2F200006946E4
:1055B000FBF710FA002818BFFBF75CF812B010BD1B
:1055C000B0B588B040F20C1040F20011C2F20000F9
:1055D000C5F2000100244FF440320123042580E885
:1055E00016000221CDE90644CDE90444CDE9024488
:1055F000CDE90044C0E90344C0E905358483016274
:1056000080F82440C0E90B4480F83840C46380F837
:105610004040FBF7B7FF002818BFFBF72BF844F218
:105620000000C3F6C02000900620CDE901057F20D0
:10563000CDE9030540F20C10C2F200006946059462
:10564000FBF7A6FD002818BFFBF714F80020C4F2F2
:10565000527000900C20019040F20C10C2F2000039
:105660006946FBF795FD002818BFFBF703F808B063
:10567000B0BD000080B582B041F24800C4F2020023
:105680000168002241F004010160016801F0040199
:1056900001910199016841F0010101600068002158
:1056A00000F00100009000980B20FDF71FF90B207F
:1056B000FDF70AF90C2000210022FDF717F90C2054
:1056C000FDF702F90D2000210022FDF70FF90D2052
:1056D00002B0BDE88040FDF7F7B8000080B540F2A9
:1056E000982046F20041C2F20000C4F200010022FC
:1056F000C0E900120A21012300F11407C0E90222C7
:10570000C0F80F204FF00D0C4FF0030E87E80A5041
:10571000C0E90933C0E90B33C0E90D32C263FCF7BD
:1057200083FD002808BF80BDBDE88040FAF7A2BF16
:105730002DE9F04786B0002741F24C000597CDE9EE
:105740000377CDE90177C4F20200016840F2004816
:1057500041F0040101600168C4F6000801F0040191
:1057600000910099016808F5806541F02001016011
:105770000168002201F020010091009901684FF4B6
:10578000404641F001010160016801F00101009112
:105790000099016841F00201016000684FF4404146
:1057A00000F00200009000982846FDF721F84FF025
:1057B00090400C2101224FF00C090124FDF718F84C
:1057C000404641F20501002241F2050AFDF710F8BA
:1057D000CDE9016401AE28463146CDE90377FCF7F7
:1057E00017FF4FF090403146CDE90194CDE90377A2
:1057F000FCF70EFF40463146CDE901A4CDE9037721
:10580000FCF706FF06B0BDE8F0870000B0B540F237
:10581000FC2043F20001C2F20000C4F201014FF487
:10582000827200234FF4706C4FF0010E4FF400743D
:10583000202580E80E100721C0E9043EC0E9064596
:10584000C0E90833C0E90A31C0E90C33FDF77AFF3B
:10585000002808BFB0BDBDE8B040FAF70BBF00009C
:10586000B0B540F2603043F60001C2F20000C4F26D
:1058700000014FF4827200234FF4706C4FF0010E60
:105880004FF40074202580E80E100721C0E9043E83
:10589000C0E90645C0E90833C0E90A31C0E90C3364
:1058A000FDF750FF002808BFB0BDBDE8B040FAF7D3
:1058B000E1BE0000B0B540F2C43043F60041C2F290
:1058C0000000C4F200014FF4827200234FF4706CA8
:1058D0004FF0010E4FF40074202580E80E100721D0
:1058E000C0E9043EC0E90645C0E90833C0E90A3111
:1058F000C0E90C33FDF726FF002808BFB0BDBDE8A6
:10590000B040FAF7B7BE000070B5A2B042F600454D
:10591000002401A83421C4F201051B94CDE91944E7
:10592000CDE91644CDE91444CDE91244CDE9104443
:10593000CDE90E44FAF74EFD40F22840C2F20000D5
:105940002021132300F1080C40F64D02C0E9005459
:105950008CE81600C0E90534FEF784FA002818BF69
:10596000FAF788FE4FF48050189040F22840C2F2B7
:10597000000018A9FEF798FB002818BFFAF77AFE76
:1059800040F22840C2F20000FEF7B0FF002818BF26
:10599000FAF770FE202015904FF40010169040F298
:1059A00028400024C2F2000015A91794FEF7E8F978
:1059B000002818BFFAF75EFE60200E9040F22640E5
:1059C000CDE90F0440F22840C2F200000EA90022E7
:1059D000CDE91144CDE91344FEF780FD002818BF3E
:1059E000FAF748FE40F22840C2F200000EA9042255
:1059F000FEF774FD002818BFFAF73CFE40F228407D
:105A0000C2F200000EA90822FEF768FD002818BFA8
:105A1000FAF730FE00264FF4005040F22844CDE95A
:105A200006064FF00070C2F20004CDE90A0601A993
:105A300020460596CDE90366CDE90166CDE9086605
:105A4000CDE90C66FEF72CF9002818BFFAF712FE14
:105A500020682196A842CDE91F661E961D9601D0AA
:105A600022B070BD41F24C00C4F20200016841F066
:105A70000101016000681DA900F001001C901C9844
:105A80004FF4E0601D9002201E900020CDE91F0021
:105A9000062021904FF09040FCF7BAFD22B070BD77
:105AA00080B588B040F2744040F600420021C2F256
:105AB0000000C4F2000240F2A3634FF0630C0791B0
:105AC000CDE905110291C0E90023C0E9021C016182
:105AD0008161FEF7C7F9002818BFFAF7CBFD4FF434
