:020000040800F2
:10000000A80B00207902000887510008334B000834
:10001000855100082B060008596000080000000008
:100020000000000000000000000000000155000872
:10003000FF06000800000000895100080355000871
:10004000930200089302000893020008930200083C
:10005000930200089302000893020008930200082C
:100060009302000893020008930200082D0600087E
:1000700039060008450600089302000893020008AC
:100080009302000893020008890400089302000804
:1000900093020008050700081107000893020008F2
:1000A0007D5500089302000893020008930200089F
:1000B00093020008930200089302000893020008CC
:1000C0009302000893020008930200088D51000873
:1000D000930200084D600008930200089302000894
:1000E000930200089302000893020008930200089C
:1000F000930200089302000893020008930200088C
:100100009302000893020008895500089302000832
:10011000930200089302000893020008930200086B
:10012000930200089302000893020008930200085B
:10013000930200089302000893020008930200084B
:10014000930200089302000893020008930200083B
:10015000930200089302000893020008930200082B
:10016000930200089302000893020008930200081B
:10017000930200089302000893020008930200080B
:1001800093020008930200089302000893020008FB
:100190009302000800000000930200089302000888
:1001A00093020008930200089302000893020008DB
:1001B00093020008930200089302000893020008CB
:1001C00093020008930200089302000893020008BB
:1001D000930200089302000800F002F800F03CF8D7
:1001E0000AA090E8000C82448344AAF10107DA4592
:1001F00001D100F031F8AFF2090EBAE80F0013F0A8
:10020000010F18BFFB1A43F00103184728680000CC
:1002100048680000103A24BF78C878C1FAD852075D
:1002200024BF30C830C144BF04680C607047000070
:100230000023002400250026103A28BF78C1FBD8EF
:10024000520728BF30C148BF0B6070471FB506F08A
:10025000B3FB1FBD10B510BD00F0E2F81146FFF76B
:10026000F5FF06F0ABFA00F000F903B4FFF7F2FF78
:1002700003BC00F001F90000094880470948004725
:10028000FEE7FEE7FEE7FEE7FEE7FEE7FEE7FEE746
:10029000FEE7FEE704480549054A064B70470000A3
:1002A0006D550008D9010008A8050020A80B002002
:1002B000A8070020A807002053EA020C00F069807C
:1002C0002DE9F04B4FF00006002B1FBFB3FA83F56A
:1002D00003FA05F424FA05F65E4012BF1643B2FA9B
:1002E00082F502FA05F4C5F120051EBF22FA05FCCD
:1002F00044EA0C04203556EA044C4FEA144418BF73
:10030000641C4FF000084FF00009904271EB030CA1
:1003100039D3002919BFB1FA81F701FA07F6B0FA0B
:1003200080F700FA07F6C7F120071EBF20FA07FC86
:1003300046EA0C062037B6FBF4FCA7EB0507103F96
:1003400007F01F0BCBF120060CFA0BFB2CFA06F67C
:1003500044BFB3460026202FA4BF5E464FF0000BDB
:100360005BEA060C08BF4FF0010B19EB0B09ABFB66
:10037000027C48EB0608C01B06FB02CC0BFB03CC3F
:1003800071EB0C01C1E70B46024641464846BDE809
:10039000F08B13B54FF000004FF00001AFF3008079
:1003A000BDE81C4070474FF0000200B5134694466C
:1003B0009646203922BFA0E80C50A0E80C50B1F1BD
:1003C0002001BFF4F7AF090728BFA0E80C5048BFD1
:1003D0000CC05DF804EB890028BF40F8042B08BF6F
:1003E000704748BF20F8022B11F0804F18BF00F86B
:1003F000012B704770477047704710B500F008F840
:10040000006810BD10B5044600F002F8046010BD8D
:10041000004870474405002000487047440500200C
:100420007546FFF7F9FFAE4605006946534620F0D2
:100430000700854618B020B5FFF72CFFBDE8204027
:100440004FF000064FF000074FF000084FF0000B90
:1004500021F00701AC46ACE8C009ACE8C009ACE843
:10046000C009ACE8C0098D4670470446AFF3008070
:100470002046FFF7FAFE000001491820ABBEFEE758
:100480002600020070470000014801F0FDB900009D
:100490009000002070B50446006881688268C1F34E
:1004A000400112F0010F28D039BB816801F00D0125
:1004B000012914D18168124A1140891C8160216888
:1004C0000320086002F068FA054612E002F064FAC0
:1004D000401B02280DD920688068C00709D0E06D54
:1004E00040F01000E065206E40F001002066012021
:1004F00070BD20688068C007E8D1002070BD000092
:10050000C0FFFF7FF8B50446002000902068816896
:1005100011F0010F4AD18168254A114237D1816813
:10052000D5432940491C81602068B0F1A04F02D01A
:100530002049884201D1204800E02048806800F02E
:10054000E07000020DD51E481E490068B0FBF1F0B6
:10055000401C00EB4000800000E0401E009000289E
:10056000FBD102F019FA06461BE0816811F0010F79
:1005700003D181682940491C816002F00DFA801B7B
:1005800002280ED920680068C043C00709D0E06D7A
:1005900040F01000E065206E40F001002066012070
:1005A000F8BD20680168C943C907DED10020F8BD45
:1005B0003F00008000010050000300500007005081
:1005C0008C000020400D030070B54FF090440128CE
:1005D00016D0022813D1002501220421204602F062
:1005E000D5F9C82001F0CCFD00220421204602F0FC
:1005F000CDF9C82001F0C4FD6D1C052DECDB70BDEC
:10060000002501220821204602F0C0F9C82001F08F
:10061000B7FD00220821204602F0B8F9C82001F0F9
:10062000AFFD6D1C052DECDB70BDFEE7014801F050
:10063000A1BC0000F8020020014801F09BBC0000B2
:1006400058030020014801F095BC0000E40400209C
:1006500010B501680E4CCAB21423083AA14203D265
:10066000B2FBF3F20B4904E0B2FBF3F2094920318B
:100670000832436C02F01F0223F003031944816423
:1006800004498031C16401219140016510BD000021
:1006900008040240000802400179084A01F07F0185
:1006A00002EB81024265054A4432491E826501F02F
:1006B0001F0201219140C16570470000FC08024003
:1006C00030B5D0E913456560446D14B1D0E91645E5
:1006D000656090F8444004F01F050124AC40056CAF
:1006E0006C60046863608368102B036803D09960B2
:1006F0000068C26030BD9A600068C16030BD70475C
:1007000072B6FEE7014801F0DABD00006801002082
:10071000014801F0D4BD0000680100202DE9F0413E
:100720002DED048B05F01AFF98B1B6EE001AF6EE27
:10073000000AB6EE000A06F07BF865490120096858
:100740004861644C20617F21634800F0F1F8F0B902
:1007500006E0BDEC048B0220BDE8F041FFF734BF9A
:100760005D4800F001FD90B90021594803F080FE7A
:1007700068B90421564803F07BFE40B9082154486B
:1007800003F076FE18B9554803F0F2FB08B10220D9
:1007900062E001220421524802F0F8F80020607063
:1007A000832005F07DFF02F0F7F805464FF4FA7656
:1007B00008E000BF02F0F0F8401BB042E7D2012091
:1007C00001F0DEFC206C8028F4D305F057FF0028F0
:1007D000F0D0DFED448A0220C4ED138A2061304658
:1007E00005F08CFE00286ED094ED089A9FED3E8AAD
:1007F000DFED3E9A01254FF47A7700BF00EE105AE4
:100800000120B8EE400A20EE080AC0EE290AC4ED25
:10081000130A05F073FE002855D06D1CBD42EDD9BA
:10082000304605F06BFE00284DD094ED080A30EEFE
:10083000490A06F0A7F89FED2E1AF0EEC00AF4EE72
:10084000C10AF1EE10FA06D39FED2A1AF4EEC10A9E
:10085000F1EE10FA06DD0820BDEC048BBDE8F04196
:1008600006F03EB8B5EEC00AF1EE10FA02DDB7EEC2
:10087000000A01E0BFEE000A84ED050AD4ED080A83
:10088000B2EE001A60EE200AB0EE480A10EE810ABD
:1008900006F078F884ED140AEFF3108572B60022A2
:1008A0004FF40041144802F071F80A485C30C0ED82
:1008B000028A1030C0ED028A2069042801D003208A
:1008C000206185F31088BDEC048BBDE8F081000049
:1008D000B803002000000020900000200404002045
:1008E0000004004800000000DB0F494000007A448B
:1008F0004CBE8C3EB4B0023F0008004810EE100A17
:1009000010B56FEAD05010F0FF0F06D0B7EE001A06
:10091000FFEE000A05F012FE01E09FED030A034816
:1009200080ED0D0A10BD0000000000000000002056
:10093000F8B500260446009690F858000D460128A8
:100940000BD0012084F858002046FFF7A3FD0100DA
:10095000E06D04D040F010002AE00220F8BD20F441
:10096000885040F00200E06520688268134B1A400E
:1009700005F080431A4342F000428260104A20682A
:100980000EE0009B5B1C0093934209D3E06D20F0C6
:10099000020040F01000E06584F858600120F8BDC6
:1009A0008368DB0FEDD1E06D20F0020040F0010024
:1009B000E06584F858600846F8BD0000C0FFFF3FBE
:1009C00002DE0400704700002DE9F84F4FF00009E7
:1009D0000446CDF800900D4694F85820DFF8EC83DB
:1009E00061694F464846012A0AD00126F84A84F830
:1009F000586041B1296A012905D0A36EEBB129E005
:100A00000220BDE8F88F6868092838D1A96A4FF438
:100A1000785041B12B6801F07C0100EA5340084353
:100A2000E96A084302E0296800EA51402168CB6C7A
:100A300013400343CB64606621E0C4E91971A96ADD
:100A4000286A31B101F07C01401E0843E96A08437D
:100A500000E0401E29682B79C1F3846103F01F0375
:100A600099400143A06E401EA066636E43EA0103F5
:100A7000636604D12168C86C10401843C8642068BC
:100A800004F068F858B995F8250098B12068C16855
:100A900095F8262021F4401141EA4251C1602068B6
:100AA00004F060F88246206804F054F85AEA000026
:100AB0000DD0FBE095F8260095F82410400540EA9B
:100AC00001512068C26822F440121143E6E7A86A87
:100AD00030B1E86A20B195F8250001285ED003E026
:100AE00095F82500012804D02068C16821F0007124
:100AF00003E02068C16841F00071C16095F83000E2
:100B0000012852D02068016921F002010161AA6820
:100B100029682068B2F1004F38D004F03EF8206810
:100B2000416921F00041416120686969C268C2F3EE
:100B3000C102520091402A69042A44D000EB82008D
:100B40002B68026EDFF88CC203F0F84302EA0C0255
:100B50000B431A4342F00041016622682869A969E3
:100B600002EB8000026E22F080720A430266297F47
:100B700022682869012923D05FF0000102EB800080
:100B8000026E22F000720A4302668FE0002204F037
:100B900004F82068416941F00041C4E7E06D40F08D
:100BA0002000E0654FF00109A8E7D5E90D100143E9
:100BB0002068026922F4FF7242F002021143A5E7A5
:100BC0004FF00071DAE7002103F0BAFF400320681C
:100BD0004FF0000172D003F0B3FF90FAA0F0B0FA2A
:100BE00080F1286842036ED090FAA0F0B0FA80F04D
:100BF000814204D100221146206803F0E5FF012163
:100C0000206803F09DFF400320684FF001015DD094
:100C100003F096FF90FAA0F0B0FA80F029684A033A
:100C200059D091FAA1F1B1FA81F1884204D10022A0
:100C30000121206803F0C8FF0221206803F080FF33
:100C4000400320684FF0020148D003F079FF90FA8A
:100C5000A0F0B0FA80F029684A0344D091FAA1F1DB
:100C6000B1FA81F1884204D100220221206803F008
:100C7000ABFF0321206803F063FF400320684FF0BF
:100C8000030133D003F05CFF90FAA0F0B0FA80F0DB
:100C900029684A032FD091FAA1F1B1FA81F1884273
:100CA00004D100220321206803F08EFF20688168B0
:100CB00011F0010F22D0B6E000E004E003F040FFA5
:100CC000C0F384618DE7C0F3846091E703F038FFDF
:100CD000C0F38460A2E7C1F38461A6E703F030FFAC
:100CE000C0F38460B7E7C1F38461BBE703F028FF7A
:100CF000C0F38460CCE7C1F38461D0E72B7B296823
:100D000050F8B02FC1F3120C22EA0C0203F0180CB9
:100D1000314B23FA0CF30B401A430260E96841455A
:100D20007ED1286841031BD090FAA0F1B1FA81F17D
:100D3000491C01F01F0109294FEA403131D800292F
:100D400011D090FAA0F1B1FA81F100BF01F10101D7
:100D500001F01F0106FA01F608D1C0F3846109E031
:100D6000C0F38461E4E7C0F38461EFE790FAA0F197
:100D7000B1FA81F101F1010101F01F0146EA81613F
:100D800002D1C0F3846003E090FAA0F0B0FA80F0E2
:100D900000F1010000F01F0000EB400041EA0051AB
:100DA0003BE000290ED090FAA0F1B1FA81F100BF2A
:100DB00001F1010101F01F0106FA01F60ED1C0F3A5
:100DC00084610FE0C0F38461F2E7000000007F401F
:100DD0000040100400F0FF03FFFF070090FAA0F1AD
:100DE000B1FA81F101F1010101F01F0146EA8161CF
:100DF00002D1C0F3846003E090FAA0F0B0FA80F072
:100E000000F1010000F01F00394A00EB400002EB46
:100E1000005041EA000141F00071AA68206800E03A
:100E200001E003F0BAFE33482B6803425CD022682D
:100E30004FF0A04C304D3148314E624501D0AA42AE
:100E400001D1014600E031468968DFF8B88001F041
:100E5000E071434503D0DFF8B080434520D15FEA1D
:100E600001281DD4624505D0284B9A423CD1AA42A4
:100E700000D0304641F40001826822F0E0720A435B
:100E80008260234823490068B0FBF1F0801C00EB2E
:100E90004000800000E0401E00900028FBD123E0CD
:100EA000DFF8748043450DD15FEAC1180AD4AA4225
:100EB0001AD01A4B9A4217D0624500D0304641F002
:100EC00080710CE0DFF8588043450DD14B020BD404
:100ED000AA4209D0624500D0304641F480018268C0
:100EE00022F0E0720A43826084F85870484688E530
:100EF000000020FE000008800001005000030050A8
:100F000000070050000021C31000C09000060050F0
:100F10008C000020400D0300000052C70005005067
:100F2000000084CB70B505462DED068B0068B0F14E
:100F3000A04F7DD1814C2169012966D0206902280A
:100F400002D02069032873D105F098FB002870D0E7
:100F5000286850F8801FD4ED110A00EE101AB8EE80
:100F6000400A70EE600A9FED760A20EE801ADFEDEF
:100F7000750A406881EE208A01EE100AD4ED121A3B
:100F8000B8EE411A31EE611A21EE001A81EE200A04
:100F9000B0EE001AF0EE480A40EE010A9FED6A0A30
:100FA000206960EE808A022866D094ED050AD4EDAF
:100FB000080AB2EE001A002560EE200A94ED140A29
:100FC00010EE810A05F0DEFCB0EE409AB0EE490A60
:100FD00005F066F8F0EE400AB0EE490AF0EE609ACD
:100FE00005F006F968EE290A48EE800AC4ED0C0AFD
:100FF00068EEA90A48EE400AC4ED0B0A9FED530AB9
:10100000002D3DD0F0EE400A40E0216C802929D22D
:1010100050F8801FD4ED110A00EE101AB8EE400A05
:1010200030EE201A84ED111A406800EE100A01E03B
:1010300018E01AE0B8EE400AD4ED120A30EE200AA9
:1010400084ED120A206C7F2809D1DFED410A21EEE0
:10105000201A20EE200A84ED111A84ED120A206C69
:10106000401C2064BDEC068B70BDBDEC068B0420DB
:10107000BDE8704005F034BC012594ED139AA5E756
:10108000D4ED0D0AB2EE041A60EE810A94ED0B1A4B
:1010900070EEC18A01D09FED2F0AD4ED0C0A274CC7
:1010A000DFED2D9A5C3430EE608A94ED020AD4EDC7
:1010B000010A9FED2AAAB0EE691A00EEA80AF0EE26
:1010C0004A0A05F03BFA84ED020AD4ED000AB0EEBC
:1010D000691A00EEA80AF0EE4A0A05F02FFA04F1A8
:1010E000100584ED030A95ED020AD5ED010AB0EE74
:1010F000691A00EE880AF0EE4A0A05F01FFA85ED3B
:10110000020AD5ED000AB0EE691A00EE880AF0EE88
:101110004A0A05F013FA85ED030AF0EE400A94ED51
:10112000031AB0EE490A05F0EBFBBDEC068B012279
:10113000D103BDE870400A4801F028BC000000203F
:1011400033335340CECCA3423ACD133F00000000CE
:101150000000003C9A99993ECDCC4C3FCDCC4CBF81
:1011600000080048704700002DE9F041044600687F
:101170004FF0A0454C4FA84201D0B84201D14B4995
:1011800000E04B49896801F01F0603F0E3FC08BB4F
:101190002068C168C06C01F0004100F4C0700843D1
:1011A00012D094F85800012814D0012084F8580077
:1011B0002046FFF7A7F901004FF000020CD084F899
:1011C00058200846BDE8F081E06D40F02000E06561
:1011D0000120F7E70220F5E7E06DC00504D5206E99
:1011E00020F00800206600E02266E06D42F2010374
:1011F000984340F48050E06520682E4BDFF8B8C07B
:10120000B84201D1AE4604E0984201D1E64600E082
:101210008646864500D02EB9D4F85CE02EF4801EB8
:10122000C4F85CE04FF0600EC0F800E084F858208D
:101230002068C268920203D5426842F4806242602C
:10124000A06908282068426807D022F04002426066
:101250002068426842F0200206E022F0200242604C
:101260002068426842F0400242602068B84204D0E0
:10127000984201D1654600E00546854209D046B155
:10128000062E06D0072E04D0E06D40F48010E065F5
:1012900097E7C26812F0007F93D18268074B1A402B
:1012A00042F0080282608CE7000100500003005009
:1012B000000700500005005000040050C0FFFF7FF1
:1012C000704770472DE9F04F044690F858009BB0E6
:1012D0000F464FF0000B012812D0012084F858006F
:1012E00000261796189620684FF0A048DFF818914E
:1012F000DFF818A1464D404506D12846009508E084
:1013000002201BB0BDE8F08F484515D15046CDF8FE
:1013100000A003F027FC0090206803F023FC009954
:10132000084311D0E06D40F02000E0654FF0010B64
:1013300084F858605846E4E7E06D40F02000E0652E
:1013400084F858600120DCE720684146884201D0DB
:10135000A84201D12F4800E02F48D7F800C02F4BFA
:1013600040F61F72BCF1000F2DD0D0F808C094F8E1
:1013700038802CF4604C4CEA483CD7F804804CEAA6
:10138000080CC0F808C0D4F800C08C4501D0AC45AA
:1013900004D18968AB6801F0010109E0D9F80810AF
:1013A000DAF8085001F0010105F001059B682943B6
:1013B00003F001031943BBD1BB6839681943836843
:1013C000934319431DE0876827F4604787602768C7
:1013D0008F4201D0AF4204D18968AB6801F00101AE
:1013E00009E0D9F80810DAF8085001F0010105F019
:1013F00001059B68294303F00103194398D18168D3
:101400009143816094E70000000400500005005003
:10141000000100500003005000070050000600507B
:101420002DE9F84F00270446009790F85800DFF8A0
:1014300014840D46B946012811D0012684F858605D
:10144000206803F08BFB60B1E06D40F02000E065A8
:101450005FF0010784F858903846BDE8F88F022005
:10146000FBE7D5E900210C23206803EA9113184417
:10147000036B01F01F014FF01F0C0CFA01FCC2F3CB
:10148000846223EA0C038A4013430363206803F059
:1014900065FB8246206803F059FB5AEA00003CD104
:1014A000AA6829682068B2F1004F37D003F066FBC4
:1014B0002068416921F00041416120686969C26882
:1014C000C2F3C102520091402A69042A31D000EBD4
:1014D00082002B68026EDFF870C303F0F84302EA63
:1014E0000C020B431A4342F00041016620682A694E
:1014F000A96900EB8200026E22F080720A43026644
:10150000297F20682A69012910D0002100EB820080
:10151000026E22F000720A4302667DE0002203F0B0
:101520002DFB2068416941F00041C5E74FF0007193
:10153000ECE7002103F0FEFA400320684FF00001C1
:1015400072D003F0F7FA90FAA0F0B0FA80F12868B0
:1015500042036ED090FAA0F0B0FA80F0814204D13C
:1015600000221146206803F027FB0121206803F0C8
:10157000E1FA400320684FF001015DD003F0DAFA90
:1015800090FAA0F0B0FA80F12868420359D090FA9E
:10159000A0F0B0FA80F0814204D10022012120683D
:1015A00003F00AFB0221206803F0C4FA400320681C
:1015B0004FF0020148D003F0BDFA90FAA0F0B0FA63
:1015C00080F12868420344D090FAA0F0B0FA80F08D
:1015D000814204D100220221206803F0EDFA0321A8
:1015E000206803F0A7FA400320684FF0030133D0CE
:1015F00003F0A0FA90FAA0F0B0FA80F12868420354
:101600002FD090FAA0F0B0FA80F0814204D10022ED
:101610000321206803F0D0FA2068816811F0010FDF
:1016200022D0ABE000E004E003F084FAC0F3846170
:101630008DE7C0F3846091E703F07CFAC0F3846126
:10164000A2E7C0F38460A6E703F074FAC0F38461F4
:10165000B7E7C0F38460BBE703F06CFAC0F38461C2
:10166000CCE7C0F38460D0E72A7B296850F8B03F0C
:10167000C1F3120C23EA0C0302F0180C734A22FA8D
:101680000CF20A4013430360E968414576D12868AB
:1016900041031BD090FAA0F1B1FA81F1491C01F08D
:1016A0001F0109294FEA403131D8002911D090FAA1
:1016B000A0F1B1FA81F100BF01F1010101F01F01B8
:1016C00006FA01F608D1C0F3846109E0C0F3846131
:1016D000E4E7C0F38461EFE790FAA0F1B1FA81F199
:1016E00001F1010101F01F0146EA816102D1C0F35D
:1016F000846003E090FAA0F0B0FA80F000F10100FD
:1017000000F01F0000EB400041EA005132E00029E8
:101710000ED090FAA0F1B1FA81F100BF01F1010100
:1017200001F01F0106FA01F605D1C0F3846106E05D
:10173000C0F38461F2E790FAA0F1B1FA81F101F10E
:10174000010101F01F0146EA816102D1C0F384600A
:1017500003E090FAA0F0B0FA80F000F1010000F090
:101760001F003B4A00EB400002EB005041EA000141
:1017700041F00071AA68206803F000FA35482B6830
:1017800003423FF467AE21684FF0A04C324D33481E
:10179000334E614501D0A94201D1024600E03246F4
:1017A0009268DFF8C08002F0E072434503D0DFF8B2
:1017B000B880434521D15FEA02281ED4614506D096
:1017C0002A4B99427FF446AEA94200D0304642F4FB
:1017D0000001826822F0E0720A43826024482549B1
:1017E0000068B0FBF1F0401C00EB4000800000E01E
:1017F000401E00900028FBD12CE6DFF87C8043459A
:101800000DD15FEAC2180AD4A942F5D01B4B994208
:10181000F2D0614500D0304642F080710CE0DFF834
:1018200060804345E8D15302E6D4A942E4D0614543
:1018300000D0304642F48001826822F0E0720A4310
:10184000826007E600007F4000F0FF03FFFF070013
:10185000000020FE0000088000010050000300503E
:1018600000070050000021C31000C0900006005087
:101870008C000020400D0300000052C700050050FE
:10188000000084CB704770472DE9F84F044600688C
:10189000066845684FF0A048DFF89092404501D0B7
:1018A000484501D1A24800E0A248806800F01F0727
:1018B000B0070ED5A8070CD5E06DC00603D4E06DC7
:1018C00040F40060E0652046FFF77CF821680220C4
:1018D0000860DFF864B2DFF864A2700701D568071A
:1018E00003D430073FD528073DD5E06DC00603D4AB
:1018F000E06D40F40070E065206803F037F960B3F4
:101900002068484501D1424604E0584501D152467D
:1019100000E00246824208D03FB1052F05D0092FD2
:1019200003D0484503D1414606E0C16805E058456B
:1019300001D1514600E00146C96889040DD401680F
:1019400009070AD503F00AF958B3E06D40F010001A
:10195000E065206E40F0010020662046FFF792FF10
:1019600021680C200860B00601D5A80603D47006D3
:101970005FD568065DD5E06DC00603D4E06D40F428
:101980000050E0652068C16C11F4C07F1AD00021BE
:10199000009103F0EBF802462068484514D1434615
:1019A00017E02068416821F00C014160E06D20F4EF
:1019B0008070E065E06DC004CFD4E06D40F00100C0
:1019C000E065CAE70121E3E7584501D1534600E04D
:1019D0000346834208D03FB1062F05D0072F03D01E
:1019E000484503D1414606E0C16805E0584501D1AC
:1019F000514600E00146C968009BA3B18B0102D5A6
:101A00008AB18A040FD4026852060CD589020AD41E
:101A100003F09CF8F0B3E06D40F01000E065206E3C
:101A200040F0010020662046FFF77CFA2168602024
:101A3000086030060BD5280609D5E06D40F48030EB
:101A4000E065204600F096F9216880200860F005E6
:101A50000CD5E8050AD5E06D40F40030E06520467D
:101A6000FFF72EFC21684FF480700860B0050CD59C
:101A7000A8050AD5E06D40F48020E0652046FFF718
:101A800020FC21684FF400700860F00631D5E806AC
:101A90002FD500E009E0E06BE8B12068EFB34045E6
:101AA00001D0484512D1224811E02068416821F058
:101AB00060014160E06D20F48050E065E06DC0059C
:101AC000B1D4E06D40F00100E065ACE719488068F2
:101AD00000F4604050B1E06D40F48060E065206E3D
:101AE00040F0020020662046FFF7CDFE216810205E
:101AF0000860700517D5680515D5E06D40F4804085
:101B0000E065206E40F00800206621684FF4806098
:101B100008602046BDE8F84F00E001E0FFF722BB77
:101B2000C068C007D6E7BDE8F88F0000000100508C
:101B30000003005000070050000500500004005052
:101B4000F8B54FF0000604003546009602D0E06D6F
:101B500010B107E00120F8BD204600F00DF9256620
:101B600084F8585020688168C1F3407119B18168C8
:101B7000744A1140816020688168C1F3007189B99D
:101B80008168714A114041F0805181606F4870490D
:101B90000068B0FBF1F04000801C00E0401E0090A7
:101BA0000028FBD120688168C1F3007141B9E16D63
:101BB00041F01001E165216E41F00101216601262D
:101BC00002F0CCFF0546E06D00F01001E06D294306
:101BD00005D040F01000E06501263046F8BD20F445
:101BE000807040F00200E0652068816811F0010F0C
:101BF00027D14FF0A043574A984201D0904204D1D8
:101C00009968976801F001010AE053498968534FC8
:101C100001F00101BF6807F001073943504FBF6869
:101C200007F0010739430CD1984201D0904201D10D
:101C30004C4800E04C486168826822F47C120A43F8
:101C40008260E168E06B627F0843A16841EA42314B
:101C5000084394F8241040EA0140012904D1218D61
:101C6000424A02EB41410843E16A29B101F478712B
:101C7000226B014342EA01002168CA683C4B1A40CA
:101C80000243CA6020680169626B21F04061114320
:101C90000161206802F05AFF05432ED1207F94F89D
:101CA0003810800340EA41012068C26844F2020310
:101CB0009A430A43C26020690028206801690AD05B
:101CC00041F480310161206850F8C01F22696FF330
:101CD0000D01114307E021F480310161206850F8C3
:101CE000C01F6FF30D01016094F8400001280CD073
:101CF0002068016921F00101016160690128206803
:101D0000016B21F00F0111D013E0D4E91101084358
:101D1000D4E913121143084321680A6940F2FC73A5
:101D20009A43104340F001000861E6E7226A521E20
:101D300011430163E06D20F0020040F00100E06516
:101D40004BE70000C0FFFF5FC0FFFF7F8C0000205B
:101D5000400D030000010050000400500005005039
:101D60000006005000030050000700500000FEFF76
:101D70000740F0FF704700002DE9F0419CB0044699
:101D8000142115A8FEF70FFB54216846FEF70BFB44
:101D90004FF40041206800268A03384F0325384C51
:101DA0004FF09048B0F1A04F10D0364B984239D147
:101DB00068461192009100F0EDFE08B1FEF7A0FC1C
:101DC0003868401C386001282FD036E068461192F0
:101DD000009100F0DFFE08B1FEF792FC3868401C6D
:101DE0003860012807D1E06C40F40050E064E06CFA
:101DF00000F400501A90E06C40F00100E064E06CE8
:101E0000159500F00100CDE916561A9015A9404627
:101E100000F0A2FC00221146122000F023FE122046
:101E200000F012FE1CB0BDE8F081E06C40F4005000
:101E3000E064E06C00F400501A90E06C40F00100A7
:101E4000E064E06C00F001001A90E06C40F00200E9
:101E5000E064E06C15A900F002001A90102081E8FF
:101E60006100404600F078FC15A94FF4006081E85D
:101E70006100054800F070FCD4E700007C00002001
:101E800000100240000100500004004810B500217D
:101E900040B190F825300122022B05D00421C16306
:101EA000012124E0012010BD03681C6824F0010416
:101EB0001C6003681C6824F00E041C60836C1C68A2
:101EC00024F480741C6090F84430046C03F01F0309
:101ED00002FA03F36360D0E913345C60436D33B1FD
:101EE0001C6824F480741C60D0E916345C6080F8AF
:101EF0002520002280F82420084610BD70B590F8F7
:101F00002520002401212346022A07D00422C2638F
:101F100080F8251080F82430012429E00268156833
:101F200025F0010515600268156825F00E0515609D
:101F3000826C156825F48075156090F84420056C56
:101F400002F01F0201FA02F26A60D0E9132555601F
:101F5000426D32B1156825F480751560D0E91625FB
:101F6000556080F8251080F82430816B01B18847D6
:101F7000204670BDF0B4016C0C6801680D6890F8E3
:101F8000442002F01F06042202FA06F3234211D075
:101F90006B070FD50B689B0603D40B6823F0040373
:101FA0000B6090F8441001F01F018A40016C4A60F8
:101FB000016B1DE0022303FA06F727424FF0000CE5
:101FC0004FF0010218D0AF0716D50C68A40605D44F
:101FD0000C6824F00A040C6080F8252090F8441066
:101FE00001F01F018B40016C4B6080F824C0C16A76
:101FF00000291AD0F0BC08470823B340234214D06C
:102000002B0712D50B6823F00E030B6090F84410D9
:10201000036C01F01F0102FA01F15960C26380F8FC
:10202000252080F824C0416BE2E7F0BC7047000037
:1020300070B504000CD02C4A21681420914209D2BA
:102040002A4A0A44B2FBF0F08000606428480AE0A3
:10205000012070BD244A52420A44B2FBF0F08000D5
:102060006064214808382064022084F825000A684A
:1020700047F6F0708243D4E902031843D4E90435EB
:102080002B431843A3691843E3691843236A184391
:10209000104308602046FEF7DBFAA0680025B0F583
:1020A000804F00D165602079A16C00F07F0008604E
:1020B000D4E9130141606068401E032808D8204617
:1020C000FEF7EAFA606D0560D4E91601416002E0AE
:1020D0006565A565E565E563012084F8250084F85C
:1020E0002450002070BD000008040240F8FFFDBF2E
:1020F0000000024070B5044690F824000025012835
:102100000CD0012084F8240094F825600020012ED2
:1021100006D084F824000225284670BD022070BD38
:10212000022684F82560E0632068066826F0010630
:1021300006602046FEF7C4FA206B0028206801687C
:1021400002D041F00E0106E021F004010160206898
:10215000016841F00A010160A06C0168C90303D560
:10216000016841F480710160606D18B1016841F44B
:10217000807101602068016841F001010160CBE7D6
:1021800070B5044600F008FC0546601C02D0044807
:102190004068044400F000FC401BA042FAD370BD2C
:1021A0008000002070477047F0B590F85C40022C2A
:1021B00003D0016E41F0080162E00468402947D075
:1021C000D4F898502D0758D0D4F89850D4F8986087
:1021D000C5F30125F60106D5D4F88040E40502D503
:1021E0006D1C05F00305C46C05EBC50604EBC604C5
:1021F000266816F080465660266844D026F0604671
:10220000166026682C4F06F00056966040CC06F00B
:102210000046166134F8046BB6B2D66154F8046C0B
:10222000C6F30346D66054F8046C06F48016566173
:1022300054F8046C06F40016966154F8046CC6F366
:102240000666166254F8046CF60F5662002622E009
:10225000D4F890502D0710D0D4F89050D4F8906056
:10226000C5F30125F60106D5D4F88040A40502D5B2
:102270006D1C05F00305846CB6E7016E41F48071B6
:1022800001660120F0BDC6F38A46B9E714F806C01E
:1022900003F806C0761CD2F80CC017F80CC0B44581
:1022A000F4D80068402903D0C0F89C500020F0BD4D
:1022B000C0F89450FAE70000C269000870472DE9A1
:1022C000F05F04460068016D426D01F4E05102EADE
:1022D0000108016D426D01F0070102EA0109016D7B
:1022E000426D01F0380102EA010A016D476D01F407
:1022F00071010F40016D426D01F46021456D02EAEC
:10230000010B016DCE43710607D4E943490604D49D
:10231000402101652046FFF7D1FFF0050ED4E843C8
:10232000C0050BD42068D0F8D820D0F8E0101140B8
:102330004FF480720265204600F009FA5FEA080057
:1023400005D0216808654146204600F002FA5FEAA0
:10235000090005D0216808654946204600F0BCF90F
:102360005FEA0A0005D0216808655146204600F062
:10237000EBF9B00509D4E843800506D421684FF491
:1023800000700865204600F0E5F930060DD4E843FA
:1023900000060AD42068D0F8D420D0F8DC10114010
:1023A00080220265204600F0D3F9B00409D4E84346
:1023B000800406D421684FF400500865204600F0E0
:1023C000C5F9300409D4E843000406D421684FF469
:1023D00000400865204600F0B8F970040AD4E843CC
:1023E000400407D421684FF480400865206E40F017
:1023F000800020665FEA0B0005D021680865594619
:102400002046FFF7D0FE27B120680765206E3843CD
:102410002066206E002802D02046FFF7C3FEBDE8EC
:10242000F09F00002DE9F041040006D0DFF8F481B0
:1024300094F85C00002518B107E00120BDE8F081A8
:1024400084F85D50204600F0F9F82068816921F099
:102450001001816100F0A0FA0646032705E000BFE5
:1024600000F09AFA801B0A2811D8206880690007BA
:10247000F6D42068816941F00101816100F08CFA95
:1024800006460BE000F088FA801B0A2806D9206E69
:1024900040F00100206684F85C70CEE72068806917
:1024A000C007EFD02068816941F002018161216895
:1024B000414502D15C4960680860207C01282068A1
:1024C000816937D041F040018161607C012820683A
:1024D000816932D021F480418161A07C012820688B
:1024E00081692DD041F48051816120688169A268A1
:1024F00021F44071114381612068816921F0A401B8
:1025000081612068016921F010010161E068012802
:1025100019D010B302281BD02068816941F08001D6
:1025200081612068016941F010010161E0680328C0
:102530000ED012E021F04001C6E741F48041CBE724
:1025400021F48051D0E72068816941F0040103E063
:102550002068816941F020018161207EE2694006A6
:102560006FF0FF0101EB0222A0F100701043226A1C
:10257000A38A521E10430A0202EB03431843236846
:10258000D861A068B0F5407F10D1D4E90A0301EB0F
:102590000321401E0843216B131303EB0111084371
:1025A000A18C02EB014108432168C860206850F803
:1025B000C01FE26B114301601D4A21681B48914214
:1025C00000D11C481C4A914201D100F5D46020641E
:1025D00051F8802FA38E22F4F81242EA03420A60D7
:1025E00000F170016164216851F8802F94F838304F
:1025F00022F0706242EA03620A6000F1B001A16455
:10260000D831E164D831216518316165D83100E0F5
:1026100020C08842FCD3A5652566012084F85C00B3
:1026200000200BE7006400400065004000A400406B
:102630000068004050A70040006C004010B59CB0FE
:102640000446142115A8FDF7AEFE54216846FDF797
:10265000AAFE1F492068884238D1801400904003A8
:102660000E90684600F096FA08B1FEF749F819484E
:10267000816D41F000718165816D01F000711A91E9
:10268000C16C41F00101C164C06C15A900F00100EA
:102690001A904FF4C0501590022016900020179009
:1026A000189009201990C00600F056F80022114633
:1026B000152000F0D7F9152000F0C6F900221146C8
:1026C000162000F0CFF9162000F0BEF91CB010BDA6
:1026D000006400400010024030B58DB00C46054645
:1026E000282102A8FDF75FFE002000900190144809
:1026F000854222D1E00720D06B4602AA402128461D
:10270000FFF752FD002818D10398002815D1029830
:10271000A0F50071013901D00E390ED105980428B9
:102720000BD3BDF902009FED071A00EE100AF8EE78
:10273000C00A80EE810AFEF7E1F80DB030BD00005E
:102740006801002000007A44704770477047704766
:1027500070477047704700002DE9F04FDFF80C928A
:10276000002301260325A9F1040B85B00F2709F1E9
:10277000040AABF1040EF1E006FA03FC12EA0C02C3
:102780007ED00C7904F00304012C01D0022C20D15E
:10279000846800945C0005FA04F80494009C24EA20
:1027A00008040094D1F80C80049C08FA04F8009CFA
:1027B00048EA0408C0F80880446824EA0C0491F848
:1027C00004C0CCF3001C0CFA03FC4CEA040CC0F867
:1027D00004C00C79E443A40702D18C68012C0ED00C
:1027E000C4684FEA430805FA08FC24EA0C04D1F84F
:1027F00008C00CFA08FC4CEA040CC0F80CC00C79B8
:1028000004F00304022C16D1DC0800EB840CCDF894
:1028100008C0DCF820C05C074FEAD46807FA08F467
:102820002CEA040C0C6904FA08F444EA0C04DDF800
:1028300008C0CCF8204004684FEA430805FA08FCB9
:1028400024EA0C0491F804C00CF0030C0CFA08FC08
:102850004CEA040CC0F800C04C6814F4403F7CD033
:10286000434CD4F860C04CF0010CC4F860C0246E36
:1028700023F0030C04F0010400943E4C644400E097
:102880006BE00294A4684FEA837C4FEA1C7807FA55
:1028900008FC24EA0C04B0F1904F06D0DFF8D8C051
:1028A000604505D14FF0010C20E04FF0000C1DE019
:1028B000DFF8C8C0604502D14FF0020C16E0DFF827
:1028C000C0C0604502D14FF0030C0FE0DFF8B4C088
:1028D000604502D14FF0040C08E0DFF8ACC0604561
:1028E00002D14FF0050C01E04FF0060C0CFA08FC89
:1028F0004CEA040C029CC4F808C0D9F80040CC464D
:10290000D1F8048094435FEAC82800D51443CCF87A
:102910000040DAF80040D446D1F8048094435FEADE
:10292000882800D51443CCF80040DBF80040DC4692
:10293000D1F8048094435FEA883800D51443CCF87A
:102940000040DEF80040F446D1F8048094435FEA8A
:10295000C83800D51443CCF800405B1C0C682246F4
:10296000DC407FF409AF05B0BDE8F08F08040140FA
:102970000010024000000140000400480008004828
:10298000000C004800100048001400480AB18161A2
:1029900070478162704700000148806870470000FE
:1029A00080000020024881684268114481607047BD
:1029B0008000002010B50024032000F073F80F20E1
:1029C00000F008F808B1012401E000F025F82046E5
:1029D00010BD000070B50E4E05460024706898B119
:1029E0004FF47A71B1FBF0F00A490968B1FBF0F0DD
:1029F00001F08FF940B9102D06D200222946501E51
:102A000000F030F8356000E00124204670BD000081
:102A1000800000208C0000200A4882B0016E41F046
:102A200001010166016E01F001010091816D41F02B
:102A300080518165806D00F08050009002B000F000
:102A4000A1B8000000100240002809DB00F01F02BE
:102A5000012191404009800000F1E020C0F8001100
:102A600070470000F0B40E4B1B680C46C3F3022302
:102A7000C3F10705042D00D90425191D072901D22A
:102A8000002300E0DB1E012606FA05F1491E214065
:102A900099409E40761E16403143F0BC03F0F0BAD8
:102AA0000CED00E0064900F0070208684FF6FF034E
:102AB000184040EA0220034A1043086070470000B3
:102AC0000CED00E00000FA052B492C4B0A6832217E
:102AD0004A432B4940B1B0F5007F086829D020F463
:102AE000C06040F480602CE00868C0F341200228F8
:102AF00004D051F8800F20F4807022E0D1F88000DB
:102B000020F48070C1F88000086820F4C06040F4B0
:102B100000700860B2FBF3F0401C00E0401E4A6900
:102B2000520501D50028F9D1486940050AD503208E
:102B30007047C0F34120022806D051F8800F40F4BE
:102B40008070086000207047D1F8800040F48070E9
:102B5000C1F88000086820F4C06040F4007008608C
:102B6000B2FBF3F0401C00E0401E4A695205DBD581
:102B70000028F9D1D8E700008C00002040420F0067
:102B8000007000400248816841F4804181607047D4
:102B9000007000402DE9F843044600680026BB4D54
:102BA00000035ED5A86D0027C00008D4A86D40F0D2
:102BB0008050A865A86D012700F080500090DFF8D4
:102BC000D092D9F8001041F48071C9F80010FFF7D5
:102BD000E3FE804606E000BFFFF7DEFEA0EB080044
:102BE00002282BD8D9F80000C005F5D5D5F89000FB
:102BF00010F4407014D0216D814211D0D5F89000AE
:102C0000D5F8901020F4407041F48031C5F8901050
:102C1000D5F8901021F48031C5F89010C5F89000D7
:102C2000C00711D0FFF7B8FE804641F2883907E0AF
:102C3000FFF7B2FEA0EB0801494501D903260BE0DE
:102C4000D5F890008007F3D5D5F89000216D20F4D9
:102C500040700843C5F890001FB1A86D20F0805067
:102C6000A8652078C00707D0D5F88800616820F0F3
:102C700003000843C5F888002078800707D5D5F8F9
:102C80008800A16820F00C000843C5F8880020786F
:102C9000400707D5D5F88800E16820F030000843E8
:102CA000C5F888002078000707D5D5F88800216985
:102CB00020F0C0000843C5F888002078C00607D57A
:102CC000D5F88800616920F440700843C5F8880091
:102CD0002078800607D5D5F88800A16920F44060E7
:102CE0000843C5F888002078400607D5D5F8880045
:102CF000E16920F440500843C5F8880020780006B8
:102D000007D5D5F88800216A20F440400843C5F86B
:102D100088002088C00507D5D5F88800616A20F4AE
:102D200040300843C5F888002068800307D5D5F8EF
:102D30009C00A16A20F003000843C5F89C0020888D
:102D4000800507D5D5F88800E16A20F440200843C3
:102D5000C5F88800208840050FD5D5F88800216B7C
:102D600020F440100843C5F88800206BB0F5801FA0
:102D700003D1E86840F48010E860208800050FD592
:102D8000D5F88800616B20F440000843C5F888003E
:102D9000606BB0F5800F03D1E86840F48010E86004
:102DA0002088C0040FD5D5F88800A16B20F04070B2
:102DB0000843C5F88800A06BB0F1807F03D1E868B4
:102DC00040F48010E86020884FF0006180040ED548
:102DD000D5F88800E26B20F040601043C5F8880009
:102DE000E06B884203D1E86840F48010E8602088F6
:102DF00040040ED5D5F88800226C20F040601043C6
:102E0000C5F88800206C884203D1E86840F480103F
:102E1000E860208800040FD5D5F88800616C20F0A8
:102E200040500843C5F88800606CB0F1805F03D162
:102E3000E86840F48030E8602068C0030FD5D5F81A
:102E40008800A16C20F040400843C5F88800A06CC1
:102E5000B0F1804F03D1E86840F48030E86020682A
:102E600040030FD5D5F89C00E16C20F440100843D6
:102E7000C5F89C00E06CB0F5001F03D1E86840F491
:102E80008010E8603046BDE8F88300000010024082
:102E9000007000402DE9F0470E4605004FF0000796
:102EA00025D0DFF8AC81D8F8000000F00F00B04268
:102EB0000CD2D8F8001021F00F013143C8F80010EF
:102EC000D8F8000000F00F00B04210D12968614C22
:102ED000C80741F2883A5AD06868DFF87C91032825
:102EE00008D0022820682DD0400500282CDB0120C6
:102EF000BDE8F08720688001F9D5E06800F00302A2
:102F0000E068C0F30310401C032A19D0534A00BFE5
:102F1000B2FBF0F0E268C2F306225043E268C2F36B
:102F20004162521C5200B0FBF2F0484517D9A0682C
:102F300010F0F00F0CD0880711D5A86840B10EE052
:102F4000474AE5E78003D0E700F0B6F8484506D9E0
:102F5000A06820F0F00040F08000A0608027A0680A
:102F6000696820F003000843A060FFF715FD814663
:102F700006E000BFFFF710FDA0EB090151453AD86C
:102F8000A068696800F00C00B0EB810FF2D12868EE
:102F9000810714D5400703D5A06840F4E060A06025
:102FA0002878000705D5A06820F4605040F4E06060
:102FB000A060A068A96820F0F000084304E0802F1A
:102FC00003D1A06820F0F000A060D8F800104046BF
:102FD00001F00F01B14216D9016821F00F01314310
:102FE0000160FFF7D9FC074607E000BFFFF7D4FCFC
:102FF000C11B514501D903207AE7D8F8000000F041
:103000000F00B042F2D12878400705D5A068E968E2
:1030100020F4E0600843A0602878000706D5A06887
:10302000296920F4605040EAC100A06000F044F833
:10303000A1680C4AC1F30311515C01F01F01C840A3
:103040000949086009480068BDE8F047FFF7C2BCBD
:10305000002002400010024000B4C4040024F40028
:1030600000127A00FA6900088C000020800000201D
:103070000548064900688968054AC1F30221515C88
:1030800001F01F01C84070478C0000200010024072
:103090000A6A00080548064900688968054AC1F3BC
:1030A000C221515C01F01F01C84070478C00002014
:1030B000001002400A6A0008184910B58868C0F379
:1030C00081021748012A0BD08A684310C2F381029B
:1030D000022A06D08A68C2F38102032A03D00020A4
:1030E00010BD184610BDCA6802F00304CA68C2F3D6
:1030F0000312521C032C02D0B0FBF2F001E0B3FB30
:10310000F2F0CA68C968C2F306225043C1F34161B4
:10311000491C4900B0FBF1F010BD00000010024056
:103120000024F4002DE9F84304007AD02078F84D0B
:10313000C00747D0A868E96800F00C0001F003015F
:103140000C2802D0082817D001E0032914D06068A9
:10315000B0F5803F17D0B0F5A02F286817D020F425
:1031600080302860286820F4802028606068E0B102
:10317000FFF712FC064614E02868800322D5606839
:103180000028D2D01EE0286840F48030EDE740F4FB
:1031900080202860F7E700BFFFF7FEFB801B642854
:1031A00070D828688003F7D50CE0FFF7F5FB0646DA
:1031B00005E000BFFFF7F0FB801B6428F0D828680B
:1031C0008003F7D4207880074CD5A868E96800F020
:1031D0000C0001F003010C2802D004280DD001E0FE
:1031E00002290AD0E068002828682BD040F48070BB
:1031F0002860FFF7D1FB064619E02868400502D594
:10320000E068002891D06868217C20F0FE4040EA08
:1032100001606860BF480068FFF7DCFB002800D150
:1032200020E072E1FFF7B8FB801B0228B8D82868BD
:103230004005F7D56868217C20F0FE4040EA016037
:1032400068600FE020F480702860FFF7A5FB064659
:1032500005E000BFFFF7A0FB801B0228A0D828686C
:103260004005F7D42078000729D560690028D5F8F3
:10327000940013D040F00100C5F89400FFF78CFBD8
:10328000064606E090E000BFFFF786FB801B0228A1
:1032900086D8D5F894008007F6D510E020F001001C
:1032A000C5F89400FFF778FB064604E0FFF774FBCF
:1032B000801B022878D8D5F894008007F6D42078AF
:1032C000400761D5A86D0026C00008D4A86D40F065
:1032D0008050A865A86D012600F0805000908E48AF
:1032E0000168C90511D40168804641F4807101600C
:1032F000FFF752FB074604E0FFF74EFBC01B022816
:1033000052D8D8F80000C005F6D5A068012815D01D
:103310000528D5F8900016D020F00100C5F89000DF
:10332000D5F8900020F00400C5F89000A06841F2A4
:103330008838B8B1FFF730FB07460EE0D5F89000AB
:1033400040F00100F0E740F00400C5F89000F5E718
:10335000FFF722FBC11B414526D8D5F89000800716
:10336000F6D50CE0FFF718FB074604E0FFF714FB67
:10337000C11B414518D8D5F890008007F6D41EB17E
:10338000A86D20F08050A8652078800629D5A06916
:103390000028D5F8980013D040F00100C5F8980037
:1033A000FFF7FAFA064606E075E000BFFFF7F4FA09
:1033B000801B02286FD8D5F898008007F6D510E05A
:1033C00020F00100C5F89800FFF7E6FA064604E091
:1033D000FFF7E2FA801B02285DD8D5F89800800735
:1033E000F6D4E069F0B3A968C1F3810103295DD087
:1033F0000228286820F08070286003D0FFF7CCFAFC
:1034000004464BE0FFF7C8FA064604E0FFF7C4FAAB
:10341000801B02283FD828688001F7D4F4E908010E
:103420006FF00F0202EB01110843218A5204490890
:1034300002EB4151A26841EA02210843217D4FF08D
:103440007E42490802EB41610843217B40EAC160AA
:10345000E968324A11400843E860286840F080700B
:10346000286000E05EE0E86840F08070E860FFF708
:1034700093FA044605E000BFFFF78EFA001B02280E
:1034800009D828688001F7D54CE000BFFFF784FA1F
:10349000001B022802D90320BDE8F88328688001B8
:1034A000F4D4E8681E490840E8603BE00128F3D006
:1034B000E868226A00F00301914226D1616A00F0B7
:1034C000F0020901103991421FD1A26A00F4FE41B5
:1034D000B1EB022F19D194F82C2000F07841B1EB18
:1034E000C26F12D1218E00F4C00249084905A1F52E
:1034F0000011914209D194F8341000F0C0604908DD
:103500004906A1F1007181420CD00120C4E70000FE
:103510000010024080000020007000400C809F01DD
:10352000FCFFEEFE0020B7E710B5006807498842AF
:103530000BD103F09DF8012204210548FFF726FA7C
:103540000448C16841F00801C16010BD003001406D
:10355000000400480000002038B5016804464A68AD
:103560008868C043430606D5C30704D1D3435B062E
:1035700001D4E16C05E0830708D4D3431B0605D4CE
:10358000216D01B02046BDE830400847830603D5D1
:10359000430601D5C30551D4D3439B064ED44306FD
:1035A0000AD494F85D30032B49D0236E43F0040312
:1035B0002366CB688B680093830609D4236E43F09F
:1035C000010323668B6800930B6823F040030B60B4
:1035D000C00506D4206E40F0080020662068806890
:1035E0000090206E002829D02068416821F0E00179
:1035F0004160012084F85D00900701D4D00722D0FB
:103600002068416821F003014160114DA06D40B177
:103610008563A06DFEF772FC18B1206E40F040008B
:103620002066606D002809D08563606DFEF766FC3A
:10363000002803D0206E40F04000206638BDC868E6
:103640008868009038BD2046FFF76EFF38BD000047
:103650009951000870B5040009D0606A002540B196
:1036600025616561A56294F85D0040B10CE0012020
:1036700070BD6068B0F5827FF4D0E561F2E784F850
:103680005C50204600F05CF8022084F85D00206861
:10369000016821F040010160E1684FF4E06291426D
:1036A00001D9002001E04FF48050B1F5706F02D0D5
:1036B000914200D0A562A188228901F4827102F4AE
:1036C00004421143227C02F002021143227D02F0E7
:1036D00001021143228B02F400721143227F02F097
:1036E0003802114394F8202002F080021143228D09
:1036F00002F40052114322681160A169042202EA17
:10370000114194F8242000F4805002F0100211437B
:1037100094F8342002F008021143A28902F4706286
:1037200011430143206841602068C16921F40061B0
:10373000C1612566012084F85D00002070BD000095
:10374000F0B587B0064614216846FCF72CFE4A48BF
:1037500037684A490225032205230024874251D1B4
:10376000086E40F480500866086E00F480500590A2
:10377000C86C40F00100C864C86C029400F00100FD
:103780000590E020CDE9000569464FF09040CDE975
:103790000323FEF7E1FF3B4D3948802728600A20CC
:1037A000C5E90104C5E903476C61AC61EC612846D9
:1037B0002C62FEF73DFC08B1FCF7A2FFB565AE62D6
:1037C000304D2F486035143028600B20686005F1BB
:1037D0000801102081E891006C61AC61EC61284621
:1037E0002C62FEF725FC08B1FCF78AFF7565002204
:1037F00001212320AE62FFF735F92320FFF724F9DA
:1038000007B0F0BD204E2148B74217D18A6D42F46F
:1038100080428A658A6D02F480420592CA6C42F049
:103820000202CA64C96C01F002010591B100009165
:10383000CDE90154CDE9034369461AE0144B9F4298
:10384000DED18B6D43F400438B658B6D03F4004335
:103850000593CB6C43F00203CB64C96C029401F076
:10386000020105913821CDE900150621CDE903219A
:103870006946FEF771FFC3E70030014000100240C7
:1038800008000240F8020020003800400004004810
:10389000003C0040704770472DE9FF5F1D4693468E
:1038A00004464FF001090E9EFFF776F8074694F89C
:1038B0005D006168012806D0B1F5827F39D1A16829
:1038C000B1BB042835D1019800287CD0BBF1000F92
:1038D000FBD0002DF9D094F85C00012829D04FF0DE
:1038E000010A84F85CA094F85D00042802D0052049
:1038F00084F85D004FF00008C4F86080C4F840B060
:10390000A4F84650A4F844500199A163E587A5871F
:10391000C4F84C80C4F85080E0684FF4E0618842FD
:1039200001D8012D09D92068426822F4805208E0AC
:10393000FFE7022004B0BDE8F09F2068426842F42F
:103940008052426020680268520603D4026842F046
:1039500040020260E0688842606846D908B1012DE3
:103960003BD1A06B01882068C160A06B801CA06364
:10397000E08F401EE08730E02068816889070FD51E
:10398000E18F69B1B9F1010F0AD1A16B0988C1605A
:10399000A06B801CA063E08F401EE0874FF0000901
:1039A00020688168C90711D0B4F8461071B1C068A9
:1039B000216C0880206C801C2064B4F84600401EF6
:1039C000A4F8460000E09EE04FF00109FEF7E4FF96
:1039D000C01BB04201D3701C74D1E08F0028CBD142
:1039E000B4F846000028C7D175E008B1012D6BD1AD
:1039F000E08F0128A06B08D921680088C860A06BFF
:103A0000801CA063E08F801E07E0216800780873A7
:103A1000A06B401CA063E08F401EE08754E020684C
:103A2000816889071AD5E18FC1B1B9F1010F15D1AC
:103A3000E18F0129A16B07D90988C160A06B801CA7
:103A4000A063E08F801E06E009780173A06B401C24
:103A5000A063E08F401EE0874FF000092068816876
:103A6000C90728D0B4F8461029B3B4F84610012984
:103A700014D9C068216C0880206C801C2064B4F8C4
:103A80004600801EA4F84600B4F84600012810D86D
:103A90002068416841F4805141600AE0007B216C5C
:103AA0000870206C401C2064B4F84600401EA4F846
:103AB00046004FF00109FEF76FFFC01BB04202D372
:103AC000701C01D012E08EB1E08F0028A7D1B4F8AD
:103AD00046000028A3D13A463146204601F01EFC9C
:103AE00050B12020206684F85C800CE084F85DA052
:103AF00084F85C8003201DE784F85DA084F85C8076
:103B0000206E0028F7D0012014E7000070B50446AD
:103B100090F85D006568012806D0B5F5827F32D146
:103B2000A5687DBB04282ED151B34AB343B394F8A2
:103B30005C00012827D0012084F85C0094F85D50D7
:103B4000042D02D0052584F85D5000252566A1636B
:103B5000A387E3872264A4F84430A4F84630E564E0
:103B6000256521684A6822F4C0424A60E168B1F5DF
:103B7000E06F0AD92068416821F48051416035E046
:103B8000012070BDFFE70220FBE721684A6842F48C
:103B900080524A60616D4FF48062896991420CD114
:103BA00094F83C10C90721684B6838D043F480432F
:103BB0004B60E18F00EB5101E187A16D8969914272
:103BC00014D121684A6822F480524A60B4F8461041
:103BD000C9072AD021684A6842F400524A60B4F802
:103BE000461000EB510000BFA4F8460094F85D00B9
:103BF000042823D0A16D2D4808632D48A16DC8620B
:103C0000A16D2C484863A06D8563B4F846302168E7
:103C1000226C0C31A06DFEF76DFA48BB13E023F463
:103C200080434B60E18F4908C6E72068416821F472
:103C300000514160B4F846004008D5E7A16D1E4828
:103C400008631E48DAE72068416841F001014160DD
:103C5000606D0563606DC562606D4563606D856311
:103C6000E38F2268A16B0C32606DFEF743FA30B12E
:103C7000206E40F01000206684F85C5080E72068D9
:103C80000168490603D4016841F04001016084F8ED
:103C90005C502068416841F0200141602068416823
:103CA00041F00201416000206BE70000D75100089D
:103CB0004D520008AB510008CD510008E1510008F9
:103CC00010B500680F4988421BD102F0D1FC0122D7
:103CD00004210D48FEF75AFE0C4C601D617851B16D
:103CE0004178207802F004FD002060708320BDE858
:103CF000104002F0D5BC4078207001206070842014
:103D0000F5E710BD0030014000040048000000202D
:103D1000704710B5401EB0F1807F01D3012010BD67
:103D20004FF0E02460610F21601702F0A9F9002034
:103D3000A06107202061002010BD704770477047C8
:103D400030B590F83C20012A45D0012280F83C2073
:103D5000CA688B6822F440721A434B6822F480626E
:103D60001A430B6822F400621A430B6922F4805252
:103D70001A434B6922F400521A430B6B22F480421F
:103D80001A430B8B22F4702242EA0342CB6922F0E1
:103D900080521A43114D03680024AB4205D0104DE8
:103DA000AB4202D00F4DAB4210D10D8D22F4700208
:103DB00042EA05520D6A22F080722A434D6A22F0CF
:103DC00000722A43C96A22F000520A435A6480F8FA
:103DD0003C40002030BD022030BD0000002C0140DE
:103DE00000340140005001407047704770470000A8
:103DF000F0B590F83C20012A43D0012580F83C50D2
:103E0000022280F83D2003685A689C681E4E1F4FAE
:103E1000DFF87CC0B34203D0BB4201D0634504D17C
:103E200022F4700E4A6842EA0E02DFF868E002EA05
:103E30000E02D1F800E04EEA020EC3F804E0026878
:103E4000B24212D0B2F1804F0FD0134B9A420CD035
:103E5000124B9A4209D0124B9A4206D0BA4204D071
:103E6000104B9A4201D0624504D1896824F0800346
:103E70001943916080F83D50002180F83C100846BD
:103E8000F0BD0220F0BD0000002C014000340140D4
:103E9000005001408FFFFFFD00040040000800407B
:103EA000000C004000400140704710B5040003D0F2
:103EB00094F83D0010B107E0012010BD002084F807
:103EC0003C00204600F022F8022084F83D00211D2D
:103ED000206801F05FFB012084F8480084F83E0070
:103EE00084F83F0084F8400084F8410084F84200E0
:103EF00084F8430084F8440084F8450084F84600C0
:103F000084F8470084F83D00002010BD08B5154A2C
:103F10000168154891420ED1016E41F400610166BD
:103F2000006E002200F40060009011461820FEF799
:103F300099FD182010E00D4A914211D1816D41F098
:103F400008018165806D002200F0080000900221C8
:103F50003220FEF787FD3220BDE80840FEF774BD31
:103F600008BD0000002C014000100240000C004081
:103F700090F83D10012901D001207047022180F8FE
:103F80003D100168CA6842F00102CA600068134926
:103F9000884214D0B0F1804F11D0114988420ED020
:103FA000104988420BD01049884208D00F498842F6
:103FB00005D00F49884202D00E49884207D1816856
:103FC0000D4A1140062906D0B1F5803F03D00168A3
:103FD00041F001010160002070470000002C014009
:103FE0000004004000080040000C00400034014084
:103FF00000400140005001400700010070B5044638
:1040000090F83C00002501281CD0012684F83C6073
:10401000022084F83D0022689068334B184020F459
:104020007F4090600868B0F5005F2ED016DC402815
:1040300049D009DCD0B1102818D0202816D030285B
:1040400049D113E0022070BD50282AD0602830D01A
:1040500070280FD0B0F5805F3DD13DE010F00F0F1C
:1040600039D10111A1F58031072934D822680146E0
:10407000104625E0CB68D1E90121206801F005FB5D
:104080002068816841F0770109E0CB68D1E901211E
:10409000206801F0FAFA2068816841F4804181606B
:1040A0001AE0CA684968206801F0D4FC50212068F1
:1040B00006E0CA684968206801F000FD60212068B8
:1040C00001F0EEFA08E0CA684968206801F0C2FC15
:1040D00040212068F4E7012584F83D60002084F841
:1040E0003C00284670BD000088FFCEFF70472DE9D8
:1040F000F04104460068C66805694FF00007A9074B
:1041000013D5B10711D5F91E016101202077206870
:1041100080698007204602D0FFF7E8FF04E000F046
:10412000E1F8204600F0A3F92777680716D5700755
:1041300014D521686FF00400086102202077206800
:10414000806910F4407F204602D0FFF7CFFF04E0E3
:1041500000F0C8F8204600F08AF92777280715D51F
:10416000300713D521686FF008000861042020771C
:104170002068C0698007204602D0FFF7B7FF04E03F
:1041800000F0B0F8204600F072F92777E80616D55F
:10419000F00614D521686FF0100008610820207720
:1041A0002068C06910F4407F204602D0FFF79EFFD0
:1041B00004E000F097F8204600F059F92777E80767
:1041C00008D0F00706D021686FF001000861204692
:1041D00000F0D8F9280601D4A80408D5300606D581
:1041E00021686FF4025008612046FFF7A7FDE8053B
:1041F00008D5300606D521686FF480700861204626
:10420000FFF79BFD680608D5700606D521686FF09C
:1042100040000861204600F0F5F9A80608D5B00670
:1042200006D521686FF0200008612046FFF787FD62
:10423000E80208D5F00206D521686FF48010086105
:104240002046FFF7D2FDA80208D5B00206D52168A6
:104250006FF4001008612046FFF7C6FD680208D51C
:10426000700206D521686FF4800008612046FFF7D0
:10427000BDFD28020AD5300208D521686FF4000080
:1042800008612046BDE8F041FFF70EBEBDE8F081B1
:1042900010B586B0044614216846FCF784F80F492F
:1042A0002068884217D10E48C16C41F00101C164F9
:1042B000C06C694600F0010005904FF4E06000908A
:1042C00002200190002002900390062004904FF0FD
:1042D0009040FEF741FA06B010BD0000002C0140EE
:1042E00000100240704770B5044690F83C0000266C
:1042F0000D4601280BD0012084F83C000C2A4AD03E
:1043000007DC82B1042A20D0082A06D131E002203D
:1043100070BD102A53D0142A63D00126002084F8DF
:104320003C00304670BD206801F0C4F92068816906
:1043300041F0080181612068816921F004018161F7
:10434000206881692A69114311E0206801F00CFAA4
:104350002068816941F4006181612068816921F4EC
:1043600080618161206881692A6941EA0221816155
:10437000D4E7206801F04CFA2068C16941F00801D7
:10438000C1612068C16921F00401C1612068C1696F
:104390002A69114311E0206801F08EFA2068C16992
:1043A00041F40061C1612068C16921F48061C1618B
:1043B0002068C1692A6941EA0221C161AEE720682B
:1043C00001F0CEFA2068016D41F008010165206816
:1043D000016D21F0040101652068016D2A69114316
:1043E00011E0206801F0F8FA2068016D41F40061E5
:1043F00001652068016D21F4806101652068016D0F
:104400002A6941EA0221016588E710B5040003D05A
:1044100094F83D0010B107E0012010BD002084F8A1
:104420003C00204600F022F8022084F83D00211DC7
:10443000206801F0AFF8012084F8480084F83E00BD
:1044400084F83F0084F8400084F8410084F842007A
:1044500084F8430084F8440084F8450084F846005A
:1044600084F8470084F83D00002010BD7047704775
:1044700070B50446022269B1042912D0082917D068
:104480000C291CD0102921D094F84300012824D0F5
:10449000012070BD94F83E000128F9D184F83E2037
:1044A0001DE094F83F000128F2D184F83F2016E087
:1044B00094F840000128EBD184F840200FE094F8F4
:1044C00041000128E4D184F8412008E094F842003A
:1044D0000128DDD184F8422001E084F84320012244
:1044E000206801F0C5F81D4920681D4A1D4B1E4D6E
:1044F00088420BD0904209D0984207D01B4EB04260
:1045000004D01B4EB04201D0A84203D1466C46F401
:10451000004646642068884211D0B0F1804F0ED02A
:10452000144988420BD01449884208D01349884264
:1045300005D0904203D0984201D0A84207D18168AB
:104540000F4A1140062906D0B1F5803F03D001681B
:1045500041F001010160002070BD0000002C01400D
:10456000003401400040014000500140004401403F
:10457000004801400004004000080040000C0040DA
:104580000700010010B519492DED028B0068884223
:1045900021D1174C94ED088A02F070F8F0B1E0696F
:1045A000A8B194ED060A38EE400A02F0EBF9DFED0F
:1045B000110A9FED111A60EE200A80EE810AD4EDF7
:1045C0000A0A9FED0E1A00EE810A84ED0A0A84EDB4
:1045D000068A0120E061BDEC028B10BD00209FED3A
:1045E000080AE06184ED0A0AF5E70000000C0040CB
:1045F000000000209A99193E6F12833A9A99593F08
:1046000000000000704790F88410012918D00121A3
:1046100080F884102421C0F8881001680A680B68AB
:1046200023F001030B6022F0005100224266036870
:1046300019602021C0F8881080F884201046704747
:10464000022070477047704770B5044690F88400A8
:1046500001281DD0012084F884002420C4F888009B
:1046600020680568026822F0010202602068826802
:1046700022F060620A438260204601F045FA206819
:1046800005602020C4F88800002084F8840070BDF4
:10469000022070BD70B5044690F8840001281DD03A
:1046A000012084F884002420C4F88800206805686C
:1046B000026822F0010202602068826822F06042F3
:1046C0000A438260204601F01FFA2068056020201E
:1046D000C4F88800002084F8840070BD022070BDFA
:1046E00070477047704700002DE9F04103680446A9
:1046F000D86919689A6840F60F0528424FF00005FE
:104700004FF002060AD187067ED501F0200702F09D
:10471000805C57EA0C0777D0616F42E1B64FDFF853
:10472000DCC2174001EA0C0C57EA0C0C6CD05FEAB3
:10473000C07C0CD05FEAC15C09D54FF0010CC3F816
:1047400020C0D4F8903043F00103C4F890308307C0
:1047500009D5D30707D023681E62D4F8903043F000
:104760000403C4F8903043070AD5D30708D026685D
:1047700004233362D4F8903043F00203C4F890303D
:1047800003070CD501F020033B4308D0266808231B
:104790003362D4F8903043F00803C4F89030030536
:1047A0000BD54B0109D526684FF400633362D4F86A
:1047B000903043F02003C4F89030D4F89030002BB0
:1047C0003DD0800609D501F0200002F08051084359
:1047D00003D0616F09B120468847D4F89000216862
:1047E0008968490602D410F0280F2AD0204601F02B
:1047F0006DFA2068806840061ED52068083050E8B1
:10480000001F21F0400100E021E040E80012002AF2
:10481000F3D1D4F8800078B179498163D4F880006D
:10482000FDF76CFB00280AD0D4F88000816B00E013
:104830002046BDE8F04108472046FFF753FFBDE89A
:10484000F0812046FFF74EFFC4F89050F7E7D4F808
:104850006CC02027BCF1010F7ED15FEAC06C7BD514
:104860005FEAC16C78D51020186220688068400625
:1048700051D5D4F880100A6850680004000C3ED06E
:10488000B4F85C3083423AD9A4F85E000868006846
:1048900080062CD4216851E8000F20F4807041E894
:1048A0000002002AF6D12068083050E8001F21F0ED
:1048B000010140E80012002AF5D12068083050E8D4
:1048C000001F21F0400140E80012002AF5D1C4F891
:1048D0008C70E566216851E8000F20F0100041E877
:1048E0000002002AF6D1D4F88000FDF7CFFA26673F
:1048F000B4F85C00B4F85E10401A81B207E0B4F876
:104900005C1081429BD11068800698D526672046AE
:10491000FFF798FE93E7B4F85C00B4F85E10401A15
:1049200081B2B4F85E00002889D0002987D02268BF
:1049300052E8000F20F4907042E80003002BF6D1FB
:104940002D4BDB432068083050E8002F1A4040E828
:10495000002CBCF1000F00E00EE0F3D1C4F88C7025
:10496000E5666567206850E8002F22F0100240E8F5
:104970000023002BF6D1C9E7C60209D5560207D598
:104980004FF4801018622046BDE8F041FFF7A9BE41
:1049900003060AD501F0800302F40002134304D099
:1049A000A16F00297FF444AF49E7420611D54A06BA
:1049B0000FD52046016851E8002F22F0400241E85F
:1049C0000023002BF6D1C0F88870856700F0B0F89E
:1049D00035E7020206D54A0004D52046BDE8F0417D
:1049E000FFF77EBEC00195D5002993DA2046BDE8C9
:1049F000F041FFF728BE0000010000102001000474
:104A0000C15C000810B5040003D0D4F8880010B1D0
:104A100007E0012010BD002084F88400204600F04B
:104A200027F82420C4F888002068016821F00101DB
:104A30000160A06A10B1204601F088F8204601F01C
:104A40006FF90128E6D02068416821F49041416067
:104A50002068816821F02A0181602068016841F0A6
:104A6000010101602046BDE8104001F0D3B800000C
:104A700070B59CB00646142115A8FBF794FC542190
:104A80006846FBF790FC25493068884244D10120F4
:104A90000025CDE900056846FEF77CF808B1FBF774
:104AA0002FFE1F49086E40F480400866086E00F42F
:104AB00080401A90C86C40F00200C864C86C15A908
:104AC00000F002001A90C02015900220CDE91605D2
:104AD0000720CDE918501348FDF73EFE134C12484D
:104AE00020601820C4E901058020C4E903506561F5
:104AF000A561E56120462562FDF79AFA08B1FBF74A
:104B0000FFFDC6F88040002211462520A662FDF771
:104B1000A9FF2520FDF798FF1CB070BD00380140AB
:104B2000001002400004004830000240E40400206D
:104B30007047FEE700EB8100006E00F0F840704720
:104B400000EB8100006E00F0F84070478068C0F311
:104B5000C00070478068C0F3C00070478068C0F331
:104B6000800070478068C0F380007047C06810F410
:104B7000406F01D00020704701207047042303EAF2
:104B8000D15310B518444369C1F3045107248C4034
:104B9000A3438A401343436110BD042303EAD15366
:104BA00010B518444369C1F3045107248C40A34352
:104BB0008A401343436110BD00EB8100016E21F078
:104BC000004111430166704700EB8100016E21F046
:104BD000004111430166704730B593B000240F9433
:104BE00010943C2168461194FBF7DDFB28484FF0F8
:104BF000A041012501604FF44031C0E90114C460B7
:104C000008210461C0E9055104774577056280F801
:104C1000244080F83840C46380F84040FCF790FF9F
:104C200008B1FBF76DFD0FA919480F94FCF74AFB7B
:104C300008B1FBF765FD174800900920CDE9010593
:104C40007F2003900420CDE90404022008908020F6
:104C50008DF824408DF825400A900B908DF8264061
:104C60008DF8304069460A48FBF7AEFE08B1FBF705
:104C700047FD0948009040F20F1001906946044832
:104C8000FBF7A2FE002801D0FBF73AFD13B030BDC0
:104C900090000020020030040400600830B589B0A4
:104CA00020216846FBF77FFB1F481E490024016056
:104CB0004FF44031C0E90114042585610121C4602D
:104CC000C0E90441047744770221016280F824405E
:104CD000C462046380F83840C46380F84040FCF745
:104CE0002FFF08B1FBF70CFD104800900620CDE91E
:104CF00001057F200594CDE9030569460A48FCF7C4
:104D00008FFB08B1FBF7FCFC094800900C200190D8
:104D100069460548FCF784FB002801D0FBF7F0FC4E
:104D200009B030BD00010050FC0000200040C03A36
:104D300000005247154808B5816C41F004018164B8
:104D4000816C01F004010091816C41F001018164EA
:104D5000806C002200F00100009001210B20FDF783
:104D600081FE0B20FDF770FE002201210C20FDF7D3
:104D700079FE0C20FDF768FE002202210D20FDF7D0
:104D800071FEBDE808400D20FDF75EBE0010024038
:104D9000124810B510490160002141608160C16076
:104DA0000174417481740A22426101220D23C0E919
:104DB00006230323C0E908328262C2620263C0E9AB
:104DC0000D21C163FDF72EFB002803D0BDE8104084
:104DD000FBF796BC10BD0000006400406801002095
:104DE0002DE9F04186B014216846FBF7DCFA314822
:104DF000C16C41F00401C164C16C01F00401059172
:104E0000C16C41F02001C164C16C01F02001059129
:104E1000C16C41F00101C164C16C01F00101059157
:104E2000C16C41F00201C164C06C234E00F002006D
:104E30004FF440440590002221463046FDF7A6FD80
:104E40004FF0904700220C213846FDF79FFDDFF818
:104E50006C80012211464046FDF798FD0122042195
:104E60004046FDF793FD012211034046FDF78EFDFC
:104E70000125CDE90045002402946946304603949B
:104E8000FDF76AFC0C200090CDE9015469463846D4
:104E90000394FDF761FC41F20500CDE90005032014
:104EA000CDE9024069464046FDF756FC06B0BDE834
:104EB000F081000000100240000800480004004893
:104EC000124810B5104901604FF482714160002111
:104ED0004FF4E062C0E90212022202610122426143
:104EE000520282612022C0E9072107224162C0E903
:104EF0000A1201634163FEF7ADFB002803D0BDE851
:104F00001040FBF7FDBB10BD00300140CC0100207C
:104F1000124810B5104901604FF4827141600021C0
:104F20004FF47062C0E902120122C0E90412520279
:104F300082612022C0E9072107224162C0E90A12EA
:104F400001634163FEF786FB002803D0BDE81040F3
:104F5000FBF7D6BB10BD0000003800403002002037
:104F6000124810B5104901604FF482714160002170
:104F70004FF47062C0E902120122C0E90412520229
:104F800082612022C0E9072107224162C0E90A129A
:104F900001634163FEF75EFB002803D0BDE81040CB
:104FA000FBF7AEBB10BD0000003C004094020020A7
:104FB00030B59BB0002419941A9417941894149443
:104FC00015941C210DA81694FBF7EDF934216846C1
:104FD000FBF7E9F936483549202580E8320040F6EC
:104FE0004D01C0E903141321C0E90514FEF75DFF6C
:104FF00008B1FBF785FB4FF48050179017A92C4898
:10500000FEF7FCFF08B1FBF77BFB2948FFF7FDF932
:1050100008B1FBF775FB4FF400101495CDE91504AA
:1050200014A92348FEF7E4FE08B1FBF769FB7020E2
:105030000D9040F22640CDE90E0410941194129484
:1050400000220DA91A481394FFF74DF908B1FBF798
:1050500057FB04220DA91648FFF745F908B1FBF7E5
:105060004FFB08220DA91248FFF73DF908B1FBF7E5
:1050700047FB00944FF40050CDE904400394000333
:10508000CDE9084001940294069407940A940B9485
:10509000694607480C94FEF753FE08B1FBF730FB56
:1050A0000348FFF7F5F81BB030BD0000002C0140AD
:1050B000B803002010B588B000241748009401946C
:1050C000029403940494059412490694016040F2FA
:1050D000A361C0E901146321C0E903148461FEF7F0
:1050E000E4FE08B1FBF70CFB4FF4805000906946DA
:1050F0000948FEF783FF08B1FBF702FB049404A9FB
:1051000005480694FEF774FE002801D0FBF7F8FA74
:1051100008B010BD000C004004040020184810B571
:10512000164901604FF4E1314160002181600C2299
:10513000C160C0E904128161C161016241628162A2
:10514000FFF760FC08B1FBF7DBFA00210C48FFF722
:10515000A1FA08B1FBF7D4FA00210948FFF774FA65
:1051600008B1FBF7CDFA0648FFF74DFA002803D047
:10517000BDE81040FBF7C4BA10BD00000038014084
:1051800050040020FEE7FEE7704700000148FEF7EC
:10519000E3B90000CC01002010B5806A0021A0F81E
:1051A0004610C187FEF7C0F910BD10B5806A0168CE
:1051B0004A6822F003024A60016E41F01001016664
:1051C000012180F85D10FEF7AFF910BD10B5806ABF
:1051D000FEF761FB10BD10B5806AFEF799FD10BDAA
:1051E00070B50546846AFDF7D7FB0246286800685B
:1051F000800627D42068416821F020014160A06822
:1052000018B96068B0F5827F17D02068416821F036
:10521000010141606421204600F046F808B12020D9
:1052200020660020A4F84600012084F85D00206E6E
:1052300040B12046FEF778F970BD2068416821F042
:105240000301E6E72046FEF725FB70BD70B5054675
:10525000846AFDF7A1FB02462868006880061FD417
:105260002068416821F0200141606421204600F05F
:1052700055F818B1206E40F0200020662068416883
:1052800021F0030141600020E087A4F846000120DE
:1052900084F85D00206E18B12046FEF745F970BD18
:1052A0002046FEF70DFD70BD2DE9F8430446406829
:1052B0004FF48276154689464FF400474FF48068D4
:1052C000B04209D1A068B84201D0404504D120685D
:1052D000016821F0400101604B46002280212046F8
:1052E000009500F0AFF880B96068B04214D1A068B2
:1052F000B84201D040450FD14B4600224FF4C06167
:105300002046009500F02EF830B1206E40F02000CD
:1053100020660320BDE8F8830020FBE7F8B51546BA
:105320000E460B460092044600224FF4C05100F096
:1053300019F888B93346002280212046009500F0F4
:1053400081F848B9334600224FF4C06120460095E9
:1053500000F008F8002804D0206E40F020002066FD
:105360000320F8BD2DE9FE4F4FF0000A984617467E
:105370000E4604460C9D8DF804A0FDF70DFB411B65
:10538000A8EB0105FDF708FB814620684FF4C06BD0
:105390000C3002902A480068C0EBC00000EB80008F
:1053A000000D6843009016E05E4506D12FB90298C3
:1053B00000788DF804009DF80400B8F1FF3F0AD092
:1053C000FDF7EAFAA0EB0900A8420CD25DB1009803
:1053D00098B3401E0090206880683040B842E3D106
:1053E0000020BDE8FE8F2068416821F0E0014160A7
:1053F0006068B0F5827F0BD1A068B0F5004F02D095
:10540000B0F5806F04D12068016821F0400101608F
:10541000A06AB0F5005F09D12068016821F400514D
:1054200001602068016841F400510160012084F8A6
:105430005D0084F85CA00320D3E7FFE70025CAE7FE
:105440008C0000202DE9F8431E469146884604460C
:10545000089DFDF7A1FA401B351AFDF79DFA074696
:1054600026480068C0F3CB3068430AE0701C09D0BE
:10547000FDF792FAC01BA8420FD275B10098B8B3DD
:10548000401E00902068816838EA010033D0002176
:105490004945EBD10020BDE8F8832068416821F040
:1054A000E00141606068B0F5827F0BD1A068B0F583
:1054B000004F02D0B0F5806F04D12068016821F060
:1054C00040010160A06AB0F5005F09D12068016861
:1054D00021F4005101602068016841F4005101602D
:1054E000012084F85D00002084F85C000320D2E7EE
:1054F000FFE70025C6E70121CAE700008C00002075
:105500007047FDF74FBA10B594B038216846FAF7E6
:105510004AFF14210EA8FAF746FF0020FDF7D4FA3F
:10552000012000900004019002200324CDE907042B
:105530005521CDE909010B900C900D906846FDF7BF
:10554000F1FD08B172B6FEE70F20CDE90E04002090
:1055500010901190129004210EA8FDF79BFC0028DA
:1055600001D072B6FEE714B010BD00000248016819
:1055700041F470010160704788ED00E00148FEF7DA
:10558000B6BD0000B80300200148FEF7B0BD000022
:10559000040400202DE9F04F02682C4B2C4E2D4FB7
:1055A000DFF8B4C02D4C2E4D4FF0804B98420BD0FD
:1055B000584509D0B04207D0B84205D0604503D065
:1055C000A04201D0A84204D122F070084A6842EA01
:1055D0000802DFF89080DFF89090DFF890A0984202
:1055E00011D058450FD0B0420DD0B8420BD0604515
:1055F00009D0A04207D0404505D0484503D05045CA
:1056000001D0A84203D122F44076CA6832434E69E1
:1056100022F0800232438E68C6620E68866298422B
:1056200009D0A04207D0404505D0484503D0504599
:1056300001D0A84201D109690163016841F0040168
:105640000160012141610260BDE8F08F002C014042
:105650000004004000080040000C004000340140FD
:10566000005001400040014000440140004801401A
:1056700010B501F01F030121046A99408C430462B4
:10568000016A9A401143016210BD10B5846842EA74
:10569000032224F47F440A432243826010BD0000A9
:1056A0008268034B1A400A4342F007018160704749
:1056B0008FFFCFFF2DE9F047056A026A22F0010251
:1056C000026243688269214C25F0020522400C6881
:1056D00022F0030214438A681E4E2A431C4D1E4FBB
:1056E000DFF878C0DFF87890DFF878A0A84209D01A
:1056F000B04207D0B84205D0604503D0484501D03C
:1057000050450AD1D0F8208028F00408C0F8208045
:1057100022F00808CA6842EA0802A84209D0B0424A
:1057200007D0B84205D0604503D0484501D0504568
:1057300005D14D6923F440731D438B692B434360AE
:105740008461496841630262BDE8F0878FFFFEFF14
:10575000002C014000340140004001400044014061
:105760000048014000500140F0B5056A026A22F08D
:1057700010020262426883691E4C204E23400C686E
:1057800023F4407343EA042425F020038D681C4F62
:1057900043EA0513184DA84203D0B04201D0B842E5
:1057A0000BD1D0F820C02CF0400CC0F820C0D1F8AC
:1057B0000CC023F0800343EA0C13A8420CD0B04283
:1057C0000AD0104DA84207D00F4DA84204D00F4D6B
:1057D000A84201D0B84207D14D6922F4406242EAA2
:1057E00085028D6942EA850242608461496881636D
:1057F0000362F0BDFF8FFFFE002C0140003401402A
:105800000050014000400140004401400048014078
:10581000F0B5056A026A22F4807202624268C369C6
:105820001E4C204E23400C6823F003031C4325F438
:1058300000738D681C4F43EA0523194DA84203D01D
:10584000B04201D0B8420BD1D0F820C02CF4806C0B
:10585000C0F820C0D1F80CC023F4006343EA0C2345
:10586000A8420CD0B0420AD0104DA84207D0104D2B
:10587000A84204D00F4DA84201D0B84207D14D69CB
:1058800022F4405242EA05128D6942EA0512426052
:10589000C4614968C1630362F0BD00008FFFFEFF71
:1058A000002C014000340140005001400040014004
:1058B0000044014000480140F0B5056A026A22F444
:1058C000805202624268C3691E4C204E23400C681D
:1058D00023F4407343EA042425F400538D681C4FDD
:1058E00043EA0533184DA84203D0B04201D0B84274
:1058F0000BD1D0F820C02CF4804CC0F820C0D1F8D7
:105900000CC023F4004343EA0C33A8420CD0B0424D
:105910000AD0104DA84207D00F4DA84204D00F4D19
:10592000A84201D0B84207D14D6922F4404242EA70
:1059300085128D6942EA85124260C461496801643A
:105940000362F0BDFF8FFFFE002C014000340140D8
:105950000050014000400140004401400048014027
:1059600030B5056A026A22F4803202624268036D31
:10597000124C23400C681C4325F400330D8943EA84
:1059800005430F4DA8420ED00E4DA8420BD00E4D30
:10599000A84208D00D4DA84205D00D4DA84202D016
:1059A0000C4DA84204D14D6922F4803242EA05220E
:1059B0004260046549688164036230BD8FFFFEFF69
:1059C000002C0140003401400040014000440140EF
:1059D000004801400050014030B5046A026A22F4D8
:1059E000801202624268036D134D24F400142B40B0
:1059F0000D6843EA05230D8944EA05540F4DA8427A
:105A00000ED00F4DA8420BD00E4DA84208D00E4D1F
:105A1000A84205D00D4DA84202D00D4DA84204D198
:105A20004D6922F4802242EA85224260036549687A
:105A3000C164046230BD0000FF8FFFFE002C0140F6
:105A40000034014000400140004401400048014052
:105A50000050014010B5036A046A24F00104046296
:105A6000104CA0420ED0104CA0420BD00F4CA042C4
:105A700008D00F4CA04205D00E4CA04202D00E4CD4
:105A8000A04203D1046A24F004040462846924F06F
:105A9000F00444EA021423F00A020A438461026219
:105AA00010BD0000002C01400034014000400140C6
:105AB00000440140004801400050014010B5036A15
:105AC000046A24F0100404620C4CA04205D00C4C73
:105AD000A04202D00B4CA04203D1046A24F040043F
